{
  "_format": "hh-sol-artifact-1",
  "contractName": "Events",
  "sourceName": "src/Events.sol",
  "abi": [
    {
      "inputs": [],
      "name": "DuplicateEvent",
      "type": "error"
    },
    {
      "inputs": [],
      "name": "DuplicateRegistration",
      "type": "error"
    },
    {
      "inputs": [],
      "name": "InvalidEventPrice",
      "type": "error"
    },
    {
      "inputs": [],
      "name": "InvalidProof",
      "type": "error"
    },
    {
      "inputs": [],
      "name": "InvalidSnapshot",
      "type": "error"
    },
    {
      "inputs": [],
      "name": "InvalidStep",
      "type": "error"
    },
    {
      "inputs": [],
      "name": "RegistrationFull",
      "type": "error"
    },
    {
      "inputs": [],
      "name": "UnknownEvent",
      "type": "error"
    },
    {
      "inputs": [],
      "name": "UnknownRegistration",
      "type": "error"
    },
    {
      "anonymous": false,
      "inputs": [
        {
          "indexed": true,
          "internalType": "address",
          "name": "previousOwner",
          "type": "address"
        },
        {
          "indexed": true,
          "internalType": "address",
          "name": "newOwner",
          "type": "address"
        }
      ],
      "name": "OwnershipTransferred",
      "type": "event"
    },
    {
      "inputs": [
        {
          "internalType": "uint256",
          "name": "eventId",
          "type": "uint256"
        },
        {
          "internalType": "string",
          "name": "cid",
          "type": "string"
        },
        {
          "internalType": "uint32",
          "name": "eventCount",
          "type": "uint32"
        },
        {
          "internalType": "uint256",
          "name": "snapshotRoot",
          "type": "uint256"
        }
      ],
      "name": "createEvent",
      "outputs": [],
      "stateMutability": "payable",
      "type": "function"
    },
    {
      "inputs": [
        {
          "internalType": "uint256[2]",
          "name": "a",
          "type": "uint256[2]"
        },
        {
          "internalType": "uint256[2][2]",
          "name": "b",
          "type": "uint256[2][2]"
        },
        {
          "internalType": "uint256[2]",
          "name": "c",
          "type": "uint256[2]"
        },
        {
          "internalType": "uint256[6]",
          "name": "input",
          "type": "uint256[6]"
        }
      ],
      "name": "eventEntrance",
      "outputs": [],
      "stateMutability": "nonpayable",
      "type": "function"
    },
    {
      "inputs": [
        {
          "internalType": "uint256[2]",
          "name": "a",
          "type": "uint256[2]"
        },
        {
          "internalType": "uint256[2][2]",
          "name": "b",
          "type": "uint256[2][2]"
        },
        {
          "internalType": "uint256[2]",
          "name": "c",
          "type": "uint256[2]"
        },
        {
          "internalType": "uint256[6]",
          "name": "input",
          "type": "uint256[6]"
        }
      ],
      "name": "eventRegistration",
      "outputs": [],
      "stateMutability": "nonpayable",
      "type": "function"
    },
    {
      "inputs": [
        {
          "internalType": "uint256",
          "name": "eventId",
          "type": "uint256"
        }
      ],
      "name": "getEventCid",
      "outputs": [
        {
          "internalType": "string",
          "name": "",
          "type": "string"
        }
      ],
      "stateMutability": "view",
      "type": "function"
    },
    {
      "inputs": [
        {
          "internalType": "uint256",
          "name": "eventId",
          "type": "uint256"
        }
      ],
      "name": "getEventCreated",
      "outputs": [
        {
          "internalType": "bool",
          "name": "",
          "type": "bool"
        }
      ],
      "stateMutability": "view",
      "type": "function"
    },
    {
      "inputs": [
        {
          "internalType": "uint256",
          "name": "eventId",
          "type": "uint256"
        }
      ],
      "name": "getEventEntranceCount",
      "outputs": [
        {
          "internalType": "uint32",
          "name": "",
          "type": "uint32"
        }
      ],
      "stateMutability": "view",
      "type": "function"
    },
    {
      "inputs": [
        {
          "internalType": "uint256",
          "name": "eventId",
          "type": "uint256"
        }
      ],
      "name": "getEventRegistrationCount",
      "outputs": [
        {
          "internalType": "uint32",
          "name": "",
          "type": "uint32"
        }
      ],
      "stateMutability": "view",
      "type": "function"
    },
    {
      "inputs": [],
      "name": "getUnitPrice",
      "outputs": [
        {
          "internalType": "uint256",
          "name": "",
          "type": "uint256"
        }
      ],
      "stateMutability": "view",
      "type": "function"
    },
    {
      "inputs": [
        {
          "internalType": "address",
          "name": "user",
          "type": "address"
        }
      ],
      "name": "getUserEventIds",
      "outputs": [
        {
          "internalType": "uint256[]",
          "name": "",
          "type": "uint256[]"
        }
      ],
      "stateMutability": "view",
      "type": "function"
    },
    {
      "inputs": [],
      "name": "owner",
      "outputs": [
        {
          "internalType": "address",
          "name": "",
          "type": "address"
        }
      ],
      "stateMutability": "view",
      "type": "function"
    },
    {
      "inputs": [],
      "name": "renounceOwnership",
      "outputs": [],
      "stateMutability": "nonpayable",
      "type": "function"
    },
    {
      "inputs": [
        {
          "internalType": "uint256",
          "name": "_unitPrice",
          "type": "uint256"
        }
      ],
      "name": "setUnitPrice",
      "outputs": [],
      "stateMutability": "nonpayable",
      "type": "function"
    },
    {
      "inputs": [
        {
          "internalType": "address",
          "name": "newOwner",
          "type": "address"
        }
      ],
      "name": "transferOwnership",
      "outputs": [],
      "stateMutability": "nonpayable",
      "type": "function"
    },
    {
      "inputs": [
        {
          "internalType": "uint256[2]",
          "name": "a",
          "type": "uint256[2]"
        },
        {
          "internalType": "uint256[2][2]",
          "name": "b",
          "type": "uint256[2][2]"
        },
        {
          "internalType": "uint256[2]",
          "name": "c",
          "type": "uint256[2]"
        },
        {
          "internalType": "uint256[6]",
          "name": "input",
          "type": "uint256[6]"
        }
      ],
      "name": "verifyProof",
      "outputs": [
        {
          "internalType": "bool",
          "name": "r",
          "type": "bool"
        }
      ],
      "stateMutability": "view",
      "type": "function"
    }
  ],
  "bytecode": "0x6080604052620f42406001553480156200001857600080fd5b50620000396200002d6200003f60201b60201c565b6200004760201b60201c565b6200010b565b600033905090565b60008060009054906101000a900473ffffffffffffffffffffffffffffffffffffffff169050816000806101000a81548173ffffffffffffffffffffffffffffffffffffffff021916908373ffffffffffffffffffffffffffffffffffffffff1602179055508173ffffffffffffffffffffffffffffffffffffffff168173ffffffffffffffffffffffffffffffffffffffff167f8be0079c531659141344cd1fd0a4f28419497f9722a3daafe3b4186f6b6457e060405160405180910390a35050565b6133c2806200011b6000396000f3fe6080604052600436106100dd5760003560e01c806389abd1491161007f578063dc1b732811610059578063dc1b7328146102b1578063e1ab86dc146102da578063f2fde38b14610317578063f398789b14610340576100dd565b806389abd149146102205780638da5cb5b1461025d578063a6f8b71414610288576100dd565b8063319aa7b7116100bb578063319aa7b71461017357806367a684e91461018f578063715018a6146101cc578063842d9dc0146101e3576100dd565b8063012a33aa146100e2578063025732301461010d5780631cc63a111461014a575b600080fd5b3480156100ee57600080fd5b506100f761037d565b6040516101049190612361565b60405180910390f35b34801561011957600080fd5b50610134600480360381019061012f91906123bc565b610387565b6040516101419190612408565b60405180910390f35b34801561015657600080fd5b50610171600480360381019061016c91906126cc565b6103b7565b005b61018d60048036038101906101889190612816565b610675565b005b34801561019b57600080fd5b506101b660048036038101906101b191906128f7565b610822565b6040516101c391906129e2565b60405180910390f35b3480156101d857600080fd5b506101e16108b9565b005b3480156101ef57600080fd5b5061020a600480360381019061020591906123bc565b6108cd565b6040516102179190612a83565b60405180910390f35b34801561022c57600080fd5b50610247600480360381019061024291906123bc565b610975565b6040516102549190612ac0565b60405180910390f35b34801561026957600080fd5b506102726109a2565b60405161027f9190612aea565b60405180910390f35b34801561029457600080fd5b506102af60048036038101906102aa91906126cc565b6109cb565b005b3480156102bd57600080fd5b506102d860048036038101906102d391906123bc565b610d25565b005b3480156102e657600080fd5b5061030160048036038101906102fc91906123bc565b610d37565b60405161030e9190612408565b60405180910390f35b34801561032357600080fd5b5061033e600480360381019061033991906128f7565b610d67565b005b34801561034c57600080fd5b50610367600480360381019061036291906126cc565b610dea565b6040516103749190612ac0565b60405180910390f35b6000600154905090565b60006003600083815260200190815260200160002060040160049054906101000a900463ffffffff169050919050565b6000816000600681106103cd576103cc612b05565b5b602002015190506000826001600681106103ea576103e9612b05565b5b6020020151905060008360026006811061040757610406612b05565b5b6020020151905060008460046006811061042457610423612b05565b5b60200201517001000000000000000000000000000000008660036006811061044f5761044e612b05565b5b602002015161045e9190612b63565b6104689190612bbd565b90506000856005600681106104805761047f612b05565b5b6020020151905060006003600084815260200190815260200160002090508060000160009054906101000a900460ff166104e6576040517f37b0f43800000000000000000000000000000000000000000000000000000000815260040160405180910390fd5b85816003015414610523576040517f40f08cfe00000000000000000000000000000000000000000000000000000000815260040160405180910390fd5b6002821461055d576040517f28cda61500000000000000000000000000000000000000000000000000000000815260040160405180910390fd5b80600501600086815260200190815260200160002060009054906101000a900460ff166105b6576040517fbd115ed600000000000000000000000000000000000000000000000000000000815260040160405180910390fd5b6105c28a8a8a8a610dea565b6105f8576040517f09bde33900000000000000000000000000000000000000000000000000000000815260040160405180910390fd5b600181600701600086815260200190815260200160002060006101000a81548160ff02191690831515021790555080600401600481819054906101000a900463ffffffff168092919061064a90612bf1565b91906101000a81548163ffffffff021916908363ffffffff1602179055505050505050505050505050565b6000841161068657610685612c1d565b5b60008263ffffffff161161069d5761069c612c1d565b5b600081116106ae576106ad612c1d565b5b60006003600086815260200190815260200160002090508060000160009054906101000a900460ff161561070e576040517fa2b3fcbd00000000000000000000000000000000000000000000000000000000815260040160405180910390fd5b8263ffffffff166001546107229190612b63565b341461075a576040517f070f3ba600000000000000000000000000000000000000000000000000000000815260040160405180910390fd5b60018160000160006101000a81548160ff021916908315150217905550838160010190816107889190612e58565b50828160020160006101000a81548163ffffffff021916908363ffffffff160217905550818160030181905550600260003373ffffffffffffffffffffffffffffffffffffffff1673ffffffffffffffffffffffffffffffffffffffff1681526020019081526020016000208590806001815401808255809150506001900390600052602060002001600090919091909150555050505050565b6060600260008373ffffffffffffffffffffffffffffffffffffffff1673ffffffffffffffffffffffffffffffffffffffff1681526020019081526020016000208054806020026020016040519081016040528092919081815260200182805480156108ad57602002820191906000526020600020905b815481526020019060010190808311610899575b50505050509050919050565b6108c1611063565b6108cb60006110e1565b565b60606003600083815260200190815260200160002060010180546108f090612c7b565b80601f016020809104026020016040519081016040528092919081815260200182805461091c90612c7b565b80156109695780601f1061093e57610100808354040283529160200191610969565b820191906000526020600020905b81548152906001019060200180831161094c57829003601f168201915b50505050509050919050565b60006003600083815260200190815260200160002060000160009054906101000a900460ff169050919050565b60008060009054906101000a900473ffffffffffffffffffffffffffffffffffffffff16905090565b6000816000600681106109e1576109e0612b05565b5b602002015190506000826001600681106109fe576109fd612b05565b5b60200201519050600083600260068110610a1b57610a1a612b05565b5b60200201519050600084600460068110610a3857610a37612b05565b5b602002015170010000000000000000000000000000000086600360068110610a6357610a62612b05565b5b6020020151610a729190612b63565b610a7c9190612bbd565b9050600085600560068110610a9457610a93612b05565b5b6020020151905060006003600084815260200190815260200160002090508060000160009054906101000a900460ff16610afa576040517f37b0f43800000000000000000000000000000000000000000000000000000000815260040160405180910390fd5b85816003015414610b37576040517f40f08cfe00000000000000000000000000000000000000000000000000000000815260040160405180910390fd5b60018214610b71576040517f28cda61500000000000000000000000000000000000000000000000000000000815260040160405180910390fd5b80600601600085815260200190815260200160002060009054906101000a900460ff1615610bcb576040517f63a185d500000000000000000000000000000000000000000000000000000000815260040160405180910390fd5b8060020160009054906101000a900463ffffffff1663ffffffff168160040160009054906101000a900463ffffffff1663ffffffff1603610c38576040517fb3c870e000000000000000000000000000000000000000000000000000000000815260040160405180910390fd5b610c448a8a8a8a610dea565b610c7a576040517f09bde33900000000000000000000000000000000000000000000000000000000815260040160405180910390fd5b600181600501600087815260200190815260200160002060006101000a81548160ff021916908315150217905550600181600601600086815260200190815260200160002060006101000a81548160ff02191690831515021790555080600401600081819054906101000a900463ffffffff1680929190610cfa90612bf1565b91906101000a81548163ffffffff021916908363ffffffff1602179055505050505050505050505050565b610d2d611063565b8060018190555050565b60006003600083815260200190815260200160002060040160009054906101000a900463ffffffff169050919050565b610d6f611063565b600073ffffffffffffffffffffffffffffffffffffffff168173ffffffffffffffffffffffffffffffffffffffff1603610dde576040517f08c379a0000000000000000000000000000000000000000000000000000000008152600401610dd590612f9c565b60405180910390fd5b610de7816110e1565b50565b6000610df4612206565b604051806040016040528087600060028110610e1357610e12612b05565b5b6020020151815260200187600160028110610e3157610e30612b05565b5b602002015181525081600001819052506040518060400160405280604051806040016040528088600060028110610e6b57610e6a612b05565b5b6020020151600060028110610e8357610e82612b05565b5b6020020151815260200188600060028110610ea157610ea0612b05565b5b6020020151600160028110610eb957610eb8612b05565b5b60200201518152508152602001604051806040016040528088600160028110610ee557610ee4612b05565b5b6020020151600060028110610efd57610efc612b05565b5b6020020151815260200188600160028110610f1b57610f1a612b05565b5b6020020151600160028110610f3357610f32612b05565b5b60200201518152508152508160200181905250604051806040016040528085600060028110610f6557610f64612b05565b5b6020020151815260200185600160028110610f8357610f82612b05565b5b602002015181525081604001819052506000600667ffffffffffffffff811115610fb057610faf612439565b5b604051908082528060200260200182016040528015610fde5781602001602082028036833780820191505090505b50905060005b60068110156110375784816006811061100057610fff612b05565b5b602002015182828151811061101857611017612b05565b5b602002602001018181525050808061102f90612fbc565b915050610fe4565b50600061104482846111a5565b036110545760019250505061105b565b6000925050505b949350505050565b61106b611398565b73ffffffffffffffffffffffffffffffffffffffff166110896109a2565b73ffffffffffffffffffffffffffffffffffffffff16146110df576040517f08c379a00000000000000000000000000000000000000000000000000000000081526004016110d690613050565b60405180910390fd5b565b60008060009054906101000a900473ffffffffffffffffffffffffffffffffffffffff169050816000806101000a81548173ffffffffffffffffffffffffffffffffffffffff021916908373ffffffffffffffffffffffffffffffffffffffff1602179055508173ffffffffffffffffffffffffffffffffffffffff168173ffffffffffffffffffffffffffffffffffffffff167f8be0079c531659141344cd1fd0a4f28419497f9722a3daafe3b4186f6b6457e060405160405180910390a35050565b6000807f30644e72e131a029b85045b68181585d2833e84879b9709143e1f593f0000001905060006111d56113a0565b9050806080015151600186516111eb9190612bbd565b1461122b576040517f08c379a0000000000000000000000000000000000000000000000000000000008152600401611222906130bc565b60405180910390fd5b60006040518060400160405280600081526020016000815250905060005b865181101561131a578387828151811061126657611265612b05565b5b6020026020010151106112ae576040517f08c379a00000000000000000000000000000000000000000000000000000000081526004016112a590613128565b60405180910390fd5b6113058261130085608001516001856112c79190612bbd565b815181106112d8576112d7612b05565b5b60200260200101518a85815181106112f3576112f2612b05565b5b60200260200101516119fc565b611ad4565b9150808061131290612fbc565b915050611249565b5061134481836080015160008151811061133757611336612b05565b5b6020026020010151611ad4565b905061137a6113568660000151611bd2565b8660200151846000015185602001518587604001518b604001518960600151611c77565b61138a5760019350505050611392565b600093505050505b92915050565b600033905090565b6113a8612239565b60405180604001604052807f2d4d9aa7e302d9df41749d5507949d05dbea33fbb16c643b22f599a2be6df2e281526020017f14bedd503c37ceb061d8ec60209fe345ce89830a19230301f076caff004d19268152508160000181905250604051806040016040528060405180604001604052807f0967032fcbf776d1afc985f88877f182d38480a653f2decaa9794cbc3bf3060c81526020017f0e187847ad4c798374d0d6732bf501847dd68bc0e071241e0213bc7fc13db7ab815250815260200160405180604001604052807f304cfbd1e08a704a99f5e847d93f8c3caafddec46b7a0d379da69a4d112346a781526020017f1739c1b1a457a8c7313123d24d2f9192f896b7c63eea05a9d57f06547ad0cec88152508152508160200181905250604051806040016040528060405180604001604052807f198e9393920d483a7260bfb731fb5d25f1aa493335a9e71297e485b7aef312c281526020017f1800deef121f1e76426a00665e5c4479674322d4f75edadd46debd5cd992f6ed815250815260200160405180604001604052807f090689d0585ff075ec9e99ad690c3395bc4b313370b38ef355acdadcd122975b81526020017f12c85ea5db8c6deb4aab71808dcb408fe3d1e7690c43d37b4ce6cc0166fa7daa8152508152508160400181905250604051806040016040528060405180604001604052807f2f428c5e5b6a397ee10a16fc04699b70af7aae6a968e378c1561e5dca802e77781526020017f0ce11f4924425b7dbf1543766e05f182505fab2f84426cc520404dbab585f5f4815250815260200160405180604001604052807f152dcf52435046651f3ab2a59543004bf1b15209dc1468b2997f24d02616da0e81526020017f0e67aae970ebe819a1056dabc171309d79f19916aa7ac4a87b9b3968367735e78152508152508160600181905250600767ffffffffffffffff81111561166f5761166e612439565b5b6040519080825280602002602001820160405280156116a857816020015b611695612280565b81526020019060019003908161168d5790505b50816080018190525060405180604001604052807f1999634d9ac111e9ef705293d48abc70a58a09546accfd6d815bae3fd28c6acc81526020017f1584704a0d6d036c74df7e132bb0f4fb5be168bc9f56112c207af62ad21e2c6b815250816080015160008151811061171e5761171d612b05565b5b602002602001018190525060405180604001604052807f024c0bebdc8de7ce7c9979580631e1db42279969d03be9ecac64edd9162e5e1681526020017f0fb8033ae38eacdd127ab2d1136a776ea72439acdebf1b73aa870ba5d22a5ea0815250816080015160018151811061179657611795612b05565b5b602002602001018190525060405180604001604052807f25de9b51289b9f22a67993eda480507600c46321d6c0b500ffdeb7e787040f1281526020017f213265d707155a5a58712ec10c9c7ac0e6e5ceabcc0b8d4ba1d9501bd71aa557815250816080015160028151811061180e5761180d612b05565b5b602002602001018190525060405180604001604052807f12c1a0534e764c81dd78b956c5bb581c08794d3afa56fcdee3a5eaf939b211ba81526020017f23003d42367bc7054cbff84a43ec93112165274e3d8e5b338a01478a14a7da88815250816080015160038151811061188657611885612b05565b5b602002602001018190525060405180604001604052807f1335c3b8fcbe1b4529154fbca507130d8f5855e8399d2db811d053fe78c6da4781526020017f07506384ac07a3848128b7d0ba83f8a590c0f7d2c50cf1bc7ac798daea9d628681525081608001516004815181106118fe576118fd612b05565b5b602002602001018190525060405180604001604052807f21cf8162f355d94c193341bc8c5a89cc710ca98968f3df171ba1ef6bbbc84b0081526020017f08d50b26a49ecd17f5415f14df01387f3a5d7002ce7b8b377b0bab8ba6a35cac815250816080015160058151811061197657611975612b05565b5b602002602001018190525060405180604001604052807f1925de9f6ffad0c92d6ce4da86e6561efd33ed21ffef175327512a0ea479fcc181526020017f24394c0ae887609abefafdca66ad5d42b26867ea6c9c94b1436e65d3c651089081525081608001516006815181106119ee576119ed612b05565b5b602002602001018190525090565b611a04612280565b611a0c61229a565b836000015181600060038110611a2557611a24612b05565b5b602002018181525050836020015181600160038110611a4757611a46612b05565b5b6020020181815250508281600260038110611a6557611a64612b05565b5b602002018181525050600060608360808460076107d05a03fa90508060008103611a8b57fe5b5080611acc576040517f08c379a0000000000000000000000000000000000000000000000000000000008152600401611ac390613194565b60405180910390fd5b505092915050565b611adc612280565b611ae46122bc565b836000015181600060048110611afd57611afc612b05565b5b602002018181525050836020015181600160048110611b1f57611b1e612b05565b5b602002018181525050826000015181600260048110611b4157611b40612b05565b5b602002018181525050826020015181600360048110611b6357611b62612b05565b5b602002018181525050600060608360c08460066107d05a03fa90508060008103611b8957fe5b5080611bca576040517f08c379a0000000000000000000000000000000000000000000000000000000008152600401611bc190613200565b60405180910390fd5b505092915050565b611bda612280565b60007f30644e72e131a029b85045b68181585d97816a916871ca8d3c208c16d87cfd47905060008360000151148015611c17575060008360200151145b15611c3b576040518060400160405280600081526020016000815250915050611c72565b604051806040016040528084600001518152602001828560200151611c60919061324f565b83611c6b9190613280565b8152509150505b919050565b600080600467ffffffffffffffff811115611c9557611c94612439565b5b604051908082528060200260200182016040528015611cce57816020015b611cbb612280565b815260200190600190039081611cb35790505b5090506000600467ffffffffffffffff811115611cee57611ced612439565b5b604051908082528060200260200182016040528015611d2757816020015b611d146122de565b815260200190600190039081611d0c5790505b5090508a82600081518110611d3f57611d3e612b05565b5b60200260200101819052508882600181518110611d5f57611d5e612b05565b5b60200260200101819052508682600281518110611d7f57611d7e612b05565b5b60200260200101819052508482600381518110611d9f57611d9e612b05565b5b60200260200101819052508981600081518110611dbf57611dbe612b05565b5b60200260200101819052508781600181518110611ddf57611dde612b05565b5b60200260200101819052508581600281518110611dff57611dfe612b05565b5b60200260200101819052508381600381518110611e1f57611e1e612b05565b5b6020026020010181905250611e348282611e44565b9250505098975050505050505050565b60008151835114611e8a576040517f08c379a0000000000000000000000000000000000000000000000000000000008152600401611e8190613300565b60405180910390fd5b6000835190506000600682611e9f9190612b63565b905060008167ffffffffffffffff811115611ebd57611ebc612439565b5b604051908082528060200260200182016040528015611eeb5781602001602082028036833780820191505090505b50905060005b8381101561217057868181518110611f0c57611f0b612b05565b5b602002602001015160000151826000600684611f289190612b63565b611f329190612bbd565b81518110611f4357611f42612b05565b5b602002602001018181525050868181518110611f6257611f61612b05565b5b602002602001015160200151826001600684611f7e9190612b63565b611f889190612bbd565b81518110611f9957611f98612b05565b5b602002602001018181525050858181518110611fb857611fb7612b05565b5b602002602001015160000151600060028110611fd757611fd6612b05565b5b6020020151826002600684611fec9190612b63565b611ff69190612bbd565b8151811061200757612006612b05565b5b60200260200101818152505085818151811061202657612025612b05565b5b60200260200101516000015160016002811061204557612044612b05565b5b602002015182600360068461205a9190612b63565b6120649190612bbd565b8151811061207557612074612b05565b5b60200260200101818152505085818151811061209457612093612b05565b5b6020026020010151602001516000600281106120b3576120b2612b05565b5b60200201518260046006846120c89190612b63565b6120d29190612bbd565b815181106120e3576120e2612b05565b5b60200260200101818152505085818151811061210257612101612b05565b5b60200260200101516020015160016002811061212157612120612b05565b5b60200201518260056006846121369190612b63565b6121409190612bbd565b8151811061215157612150612b05565b5b602002602001018181525050808061216890612fbc565b915050611ef1565b50612179612304565b6000602082602086026020860160086107d05a03fa9050806000810361219b57fe5b50806121dc576040517f08c379a00000000000000000000000000000000000000000000000000000000081526004016121d39061336c565b60405180910390fd5b6000826000600181106121f2576121f1612b05565b5b602002015114159550505050505092915050565b6040518060600160405280612219612280565b81526020016122266122de565b8152602001612233612280565b81525090565b6040518060a0016040528061224c612280565b81526020016122596122de565b81526020016122666122de565b81526020016122736122de565b8152602001606081525090565b604051806040016040528060008152602001600081525090565b6040518060600160405280600390602082028036833780820191505090505090565b6040518060800160405280600490602082028036833780820191505090505090565b60405180604001604052806122f1612326565b81526020016122fe612326565b81525090565b6040518060200160405280600190602082028036833780820191505090505090565b6040518060400160405280600290602082028036833780820191505090505090565b6000819050919050565b61235b81612348565b82525050565b60006020820190506123766000830184612352565b92915050565b6000604051905090565b600080fd5b600080fd5b61239981612348565b81146123a457600080fd5b50565b6000813590506123b681612390565b92915050565b6000602082840312156123d2576123d1612386565b5b60006123e0848285016123a7565b91505092915050565b600063ffffffff82169050919050565b612402816123e9565b82525050565b600060208201905061241d60008301846123f9565b92915050565b600080fd5b6000601f19601f8301169050919050565b7f4e487b7100000000000000000000000000000000000000000000000000000000600052604160045260246000fd5b61247182612428565b810181811067ffffffffffffffff821117156124905761248f612439565b5b80604052505050565b60006124a361237c565b90506124af8282612468565b919050565b600067ffffffffffffffff8211156124cf576124ce612439565b5b602082029050919050565b600080fd5b60006124f26124ed846124b4565b612499565b9050806020840283018581111561250c5761250b6124da565b5b835b81811015612535578061252188826123a7565b84526020840193505060208101905061250e565b5050509392505050565b600082601f83011261255457612553612423565b5b60026125618482856124df565b91505092915050565b600067ffffffffffffffff82111561258557612584612439565b5b602082029050919050565b60006125a361259e8461256a565b612499565b905080604084028301858111156125bd576125bc6124da565b5b835b818110156125e657806125d2888261253f565b8452602084019350506040810190506125bf565b5050509392505050565b600082601f83011261260557612604612423565b5b6002612612848285612590565b91505092915050565b600067ffffffffffffffff82111561263657612635612439565b5b602082029050919050565b600061265461264f8461261b565b612499565b9050806020840283018581111561266e5761266d6124da565b5b835b81811015612697578061268388826123a7565b845260208401935050602081019050612670565b5050509392505050565b600082601f8301126126b6576126b5612423565b5b60066126c3848285612641565b91505092915050565b6000806000806101c085870312156126e7576126e6612386565b5b60006126f58782880161253f565b9450506040612706878288016125f0565b93505060c06127178782880161253f565b925050610100612729878288016126a1565b91505092959194509250565b600080fd5b600067ffffffffffffffff82111561275557612754612439565b5b61275e82612428565b9050602081019050919050565b82818337600083830152505050565b600061278d6127888461273a565b612499565b9050828152602081018484840111156127a9576127a8612735565b5b6127b484828561276b565b509392505050565b600082601f8301126127d1576127d0612423565b5b81356127e184826020860161277a565b91505092915050565b6127f3816123e9565b81146127fe57600080fd5b50565b600081359050612810816127ea565b92915050565b600080600080608085870312156128305761282f612386565b5b600061283e878288016123a7565b945050602085013567ffffffffffffffff81111561285f5761285e61238b565b5b61286b878288016127bc565b935050604061287c87828801612801565b925050606061288d878288016123a7565b91505092959194509250565b600073ffffffffffffffffffffffffffffffffffffffff82169050919050565b60006128c482612899565b9050919050565b6128d4816128b9565b81146128df57600080fd5b50565b6000813590506128f1816128cb565b92915050565b60006020828403121561290d5761290c612386565b5b600061291b848285016128e2565b91505092915050565b600081519050919050565b600082825260208201905092915050565b6000819050602082019050919050565b61295981612348565b82525050565b600061296b8383612950565b60208301905092915050565b6000602082019050919050565b600061298f82612924565b612999818561292f565b93506129a483612940565b8060005b838110156129d55781516129bc888261295f565b97506129c783612977565b9250506001810190506129a8565b5085935050505092915050565b600060208201905081810360008301526129fc8184612984565b905092915050565b600081519050919050565b600082825260208201905092915050565b60005b83811015612a3e578082015181840152602081019050612a23565b60008484015250505050565b6000612a5582612a04565b612a5f8185612a0f565b9350612a6f818560208601612a20565b612a7881612428565b840191505092915050565b60006020820190508181036000830152612a9d8184612a4a565b905092915050565b60008115159050919050565b612aba81612aa5565b82525050565b6000602082019050612ad56000830184612ab1565b92915050565b612ae4816128b9565b82525050565b6000602082019050612aff6000830184612adb565b92915050565b7f4e487b7100000000000000000000000000000000000000000000000000000000600052603260045260246000fd5b7f4e487b7100000000000000000000000000000000000000000000000000000000600052601160045260246000fd5b6000612b6e82612348565b9150612b7983612348565b9250817fffffffffffffffffffffffffffffffffffffffffffffffffffffffffffffffff0483118215151615612bb257612bb1612b34565b5b828202905092915050565b6000612bc882612348565b9150612bd383612348565b9250828201905080821115612beb57612bea612b34565b5b92915050565b6000612bfc826123e9565b915063ffffffff8203612c1257612c11612b34565b5b600182019050919050565b7f4e487b7100000000000000000000000000000000000000000000000000000000600052600160045260246000fd5b7f4e487b7100000000000000000000000000000000000000000000000000000000600052602260045260246000fd5b60006002820490506001821680612c9357607f821691505b602082108103612ca657612ca5612c4c565b5b50919050565b60008190508160005260206000209050919050565b60006020601f8301049050919050565b600082821b905092915050565b600060088302612d0e7fffffffffffffffffffffffffffffffffffffffffffffffffffffffffffffffff82612cd1565b612d188683612cd1565b95508019841693508086168417925050509392505050565b6000819050919050565b6000612d55612d50612d4b84612348565b612d30565b612348565b9050919050565b6000819050919050565b612d6f83612d3a565b612d83612d7b82612d5c565b848454612cde565b825550505050565b600090565b612d98612d8b565b612da3818484612d66565b505050565b5b81811015612dc757612dbc600082612d90565b600181019050612da9565b5050565b601f821115612e0c57612ddd81612cac565b612de684612cc1565b81016020851015612df5578190505b612e09612e0185612cc1565b830182612da8565b50505b505050565b600082821c905092915050565b6000612e2f60001984600802612e11565b1980831691505092915050565b6000612e488383612e1e565b9150826002028217905092915050565b612e6182612a04565b67ffffffffffffffff811115612e7a57612e79612439565b5b612e848254612c7b565b612e8f828285612dcb565b600060209050601f831160018114612ec25760008415612eb0578287015190505b612eba8582612e3c565b865550612f22565b601f198416612ed086612cac565b60005b82811015612ef857848901518255600182019150602085019450602081019050612ed3565b86831015612f155784890151612f11601f891682612e1e565b8355505b6001600288020188555050505b505050505050565b7f4f776e61626c653a206e6577206f776e657220697320746865207a65726f206160008201527f6464726573730000000000000000000000000000000000000000000000000000602082015250565b6000612f86602683612a0f565b9150612f9182612f2a565b604082019050919050565b60006020820190508181036000830152612fb581612f79565b9050919050565b6000612fc782612348565b91507fffffffffffffffffffffffffffffffffffffffffffffffffffffffffffffffff8203612ff957612ff8612b34565b5b600182019050919050565b7f4f776e61626c653a2063616c6c6572206973206e6f7420746865206f776e6572600082015250565b600061303a602083612a0f565b915061304582613004565b602082019050919050565b600060208201905081810360008301526130698161302d565b9050919050565b7f76657269666965722d6261642d696e7075740000000000000000000000000000600082015250565b60006130a6601283612a0f565b91506130b182613070565b602082019050919050565b600060208201905081810360008301526130d581613099565b9050919050565b7f76657269666965722d6774652d736e61726b2d7363616c61722d6669656c6400600082015250565b6000613112601f83612a0f565b915061311d826130dc565b602082019050919050565b6000602082019050818103600083015261314181613105565b9050919050565b7f70616972696e672d6d756c2d6661696c65640000000000000000000000000000600082015250565b600061317e601283612a0f565b915061318982613148565b602082019050919050565b600060208201905081810360008301526131ad81613171565b9050919050565b7f70616972696e672d6164642d6661696c65640000000000000000000000000000600082015250565b60006131ea601283612a0f565b91506131f5826131b4565b602082019050919050565b60006020820190508181036000830152613219816131dd565b9050919050565b7f4e487b7100000000000000000000000000000000000000000000000000000000600052601260045260246000fd5b600061325a82612348565b915061326583612348565b92508261327557613274613220565b5b828206905092915050565b600061328b82612348565b915061329683612348565b92508282039050818111156132ae576132ad612b34565b5b92915050565b7f70616972696e672d6c656e677468732d6661696c656400000000000000000000600082015250565b60006132ea601683612a0f565b91506132f5826132b4565b602082019050919050565b60006020820190508181036000830152613319816132dd565b9050919050565b7f70616972696e672d6f70636f64652d6661696c65640000000000000000000000600082015250565b6000613356601583612a0f565b915061336182613320565b602082019050919050565b6000602082019050818103600083015261338581613349565b905091905056fea2646970667358221220878922a8363cc0ad6c9951e913fbe84674c5e05126f6686791336e98683d5aea64736f6c63430008100033",
  "linkReferences": {},
  "deployedLinkReferences": {}
}