{
  "_format": "hh-sol-artifact-1",
  "contractName": "Events",
  "sourceName": "src/Events.sol",
  "abi": [
    {
      "inputs": [],
      "name": "DuplicateEvent",
      "type": "error"
    },
    {
      "inputs": [],
      "name": "DuplicateRegistration",
      "type": "error"
    },
    {
      "inputs": [],
      "name": "InvalidEventPrice",
      "type": "error"
    },
    {
      "inputs": [],
      "name": "InvalidProof",
      "type": "error"
    },
    {
      "inputs": [],
      "name": "InvalidSnapshot",
      "type": "error"
    },
    {
      "inputs": [],
      "name": "InvalidStep",
      "type": "error"
    },
    {
      "inputs": [],
      "name": "RegistrationFull",
      "type": "error"
    },
    {
      "inputs": [],
      "name": "UnknownEvent",
      "type": "error"
    },
    {
      "inputs": [],
      "name": "UnknownRegistration",
      "type": "error"
    },
    {
      "anonymous": false,
      "inputs": [
        {
          "indexed": true,
          "internalType": "address",
          "name": "previousOwner",
          "type": "address"
        },
        {
          "indexed": true,
          "internalType": "address",
          "name": "newOwner",
          "type": "address"
        }
      ],
      "name": "OwnershipTransferred",
      "type": "event"
    },
    {
      "inputs": [
        {
          "internalType": "uint256",
          "name": "eventId",
          "type": "uint256"
        },
        {
          "internalType": "string",
          "name": "uri",
          "type": "string"
        },
        {
          "internalType": "uint32",
          "name": "eventCount",
          "type": "uint32"
        },
        {
          "internalType": "uint256",
          "name": "snapshotRoot",
          "type": "uint256"
        }
      ],
      "name": "createEvent",
      "outputs": [],
      "stateMutability": "payable",
      "type": "function"
    },
    {
      "inputs": [
        {
          "internalType": "uint256[2]",
          "name": "a",
          "type": "uint256[2]"
        },
        {
          "internalType": "uint256[2][2]",
          "name": "b",
          "type": "uint256[2][2]"
        },
        {
          "internalType": "uint256[2]",
          "name": "c",
          "type": "uint256[2]"
        },
        {
          "internalType": "uint256[6]",
          "name": "input",
          "type": "uint256[6]"
        }
      ],
      "name": "eventEntrance",
      "outputs": [],
      "stateMutability": "nonpayable",
      "type": "function"
    },
    {
      "inputs": [
        {
          "internalType": "uint256[2]",
          "name": "a",
          "type": "uint256[2]"
        },
        {
          "internalType": "uint256[2][2]",
          "name": "b",
          "type": "uint256[2][2]"
        },
        {
          "internalType": "uint256[2]",
          "name": "c",
          "type": "uint256[2]"
        },
        {
          "internalType": "uint256[6]",
          "name": "input",
          "type": "uint256[6]"
        }
      ],
      "name": "eventRegistration",
      "outputs": [],
      "stateMutability": "nonpayable",
      "type": "function"
    },
    {
      "inputs": [
        {
          "internalType": "uint256",
          "name": "eventId",
          "type": "uint256"
        }
      ],
      "name": "getEventUri",
      "outputs": [
        {
          "internalType": "string",
          "name": "",
          "type": "string"
        }
      ],
      "stateMutability": "view",
      "type": "function"
    },
    {
      "inputs": [],
      "name": "getUnitPrice",
      "outputs": [
        {
          "internalType": "uint256",
          "name": "",
          "type": "uint256"
        }
      ],
      "stateMutability": "view",
      "type": "function"
    },
    {
      "inputs": [],
      "name": "owner",
      "outputs": [
        {
          "internalType": "address",
          "name": "",
          "type": "address"
        }
      ],
      "stateMutability": "view",
      "type": "function"
    },
    {
      "inputs": [],
      "name": "renounceOwnership",
      "outputs": [],
      "stateMutability": "nonpayable",
      "type": "function"
    },
    {
      "inputs": [
        {
          "internalType": "uint256",
          "name": "_unitPrice",
          "type": "uint256"
        }
      ],
      "name": "setUnitPrice",
      "outputs": [],
      "stateMutability": "nonpayable",
      "type": "function"
    },
    {
      "inputs": [
        {
          "internalType": "address",
          "name": "newOwner",
          "type": "address"
        }
      ],
      "name": "transferOwnership",
      "outputs": [],
      "stateMutability": "nonpayable",
      "type": "function"
    },
    {
      "inputs": [
        {
          "internalType": "uint256[2]",
          "name": "a",
          "type": "uint256[2]"
        },
        {
          "internalType": "uint256[2][2]",
          "name": "b",
          "type": "uint256[2][2]"
        },
        {
          "internalType": "uint256[2]",
          "name": "c",
          "type": "uint256[2]"
        },
        {
          "internalType": "uint256[6]",
          "name": "input",
          "type": "uint256[6]"
        }
      ],
      "name": "verifyProof",
      "outputs": [
        {
          "internalType": "bool",
          "name": "r",
          "type": "bool"
        }
      ],
      "stateMutability": "view",
      "type": "function"
    }
  ],
  "bytecode": "0x608060405263039387006001553480156200001957600080fd5b506200003a6200002e6200004060201b60201c565b6200004860201b60201c565b6200010c565b600033905090565b60008060009054906101000a900473ffffffffffffffffffffffffffffffffffffffff169050816000806101000a81548173ffffffffffffffffffffffffffffffffffffffff021916908373ffffffffffffffffffffffffffffffffffffffff1602179055508173ffffffffffffffffffffffffffffffffffffffff168173ffffffffffffffffffffffffffffffffffffffff167f8be0079c531659141344cd1fd0a4f28419497f9722a3daafe3b4186f6b6457e060405160405180910390a35050565b613011806200011c6000396000f3fe6080604052600436106100915760003560e01c80638da5cb5b116100595780638da5cb5b1461015a578063a6f8b71414610185578063dc1b7328146101ae578063f2fde38b146101d7578063f398789b1461020057610091565b8063012a33aa146100965780631cc63a11146100c1578063319aa7b7146100ea578063606d0c5814610106578063715018a614610143575b600080fd5b3480156100a257600080fd5b506100ab61023d565b6040516100b891906120ba565b60405180910390f35b3480156100cd57600080fd5b506100e860048036038101906100e391906123be565b610247565b005b61010460048036038101906100ff9190612518565b6104c2565b005b34801561011257600080fd5b5061012d6004803603810190610128919061259b565b61066f565b60405161013a9190612647565b60405180910390f35b34801561014f57600080fd5b50610158610717565b005b34801561016657600080fd5b5061016f61072b565b60405161017c91906126aa565b60405180910390f35b34801561019157600080fd5b506101ac60048036038101906101a791906123be565b610754565b005b3480156101ba57600080fd5b506101d560048036038101906101d0919061259b565b610aae565b005b3480156101e357600080fd5b506101fe60048036038101906101f991906126f1565b610ac0565b005b34801561020c57600080fd5b50610227600480360381019061022291906123be565b610b43565b6040516102349190612739565b60405180910390f35b6000600154905090565b60008160006006811061025d5761025c612754565b5b6020020151905060008260016006811061027a57610279612754565b5b6020020151905060008360026006811061029757610296612754565b5b602002015190506000846004600681106102b4576102b3612754565b5b6020020151700100000000000000000000000000000000866003600681106102df576102de612754565b5b60200201516102ee91906127b2565b6102f8919061280c565b90506000856005600681106103105761030f612754565b5b6020020151905060006003600084815260200190815260200160002090508060000160009054906101000a900460ff16610376576040517f37b0f43800000000000000000000000000000000000000000000000000000000815260040160405180910390fd5b858160030154146103b3576040517f40f08cfe00000000000000000000000000000000000000000000000000000000815260040160405180910390fd5b600282146103ed576040517f28cda61500000000000000000000000000000000000000000000000000000000815260040160405180910390fd5b80600501600086815260200190815260200160002060009054906101000a900460ff16610446576040517fbd115ed600000000000000000000000000000000000000000000000000000000815260040160405180910390fd5b6104528a8a8a8a610b43565b610488576040517f09bde33900000000000000000000000000000000000000000000000000000000815260040160405180910390fd5b600181600701600086815260200190815260200160002060006101000a81548160ff02191690831515021790555050505050505050505050565b600084116104d3576104d2612840565b5b60008263ffffffff16116104ea576104e9612840565b5b600081116104fb576104fa612840565b5b60006003600086815260200190815260200160002090508060000160009054906101000a900460ff161561055b576040517fa2b3fcbd00000000000000000000000000000000000000000000000000000000815260040160405180910390fd5b8263ffffffff1660015461056f91906127b2565b34146105a7576040517f070f3ba600000000000000000000000000000000000000000000000000000000815260040160405180910390fd5b60018160000160006101000a81548160ff021916908315150217905550838160010190816105d59190612a7b565b50828160020160006101000a81548163ffffffff021916908363ffffffff160217905550818160030181905550600260003373ffffffffffffffffffffffffffffffffffffffff1673ffffffffffffffffffffffffffffffffffffffff1681526020019081526020016000208590806001815401808255809150506001900390600052602060002001600090919091909150555050505050565b60606003600083815260200190815260200160002060010180546106929061289e565b80601f01602080910402602001604051908101604052809291908181526020018280546106be9061289e565b801561070b5780601f106106e05761010080835404028352916020019161070b565b820191906000526020600020905b8154815290600101906020018083116106ee57829003601f168201915b50505050509050919050565b61071f610dbc565b6107296000610e3a565b565b60008060009054906101000a900473ffffffffffffffffffffffffffffffffffffffff16905090565b60008160006006811061076a57610769612754565b5b6020020151905060008260016006811061078757610786612754565b5b602002015190506000836002600681106107a4576107a3612754565b5b602002015190506000846004600681106107c1576107c0612754565b5b6020020151700100000000000000000000000000000000866003600681106107ec576107eb612754565b5b60200201516107fb91906127b2565b610805919061280c565b905060008560056006811061081d5761081c612754565b5b6020020151905060006003600084815260200190815260200160002090508060000160009054906101000a900460ff16610883576040517f37b0f43800000000000000000000000000000000000000000000000000000000815260040160405180910390fd5b858160030154146108c0576040517f40f08cfe00000000000000000000000000000000000000000000000000000000815260040160405180910390fd5b600182146108fa576040517f28cda61500000000000000000000000000000000000000000000000000000000815260040160405180910390fd5b80600601600085815260200190815260200160002060009054906101000a900460ff1615610954576040517f63a185d500000000000000000000000000000000000000000000000000000000815260040160405180910390fd5b8060020160009054906101000a900463ffffffff1663ffffffff168160040160009054906101000a900463ffffffff1663ffffffff16036109c1576040517fb3c870e000000000000000000000000000000000000000000000000000000000815260040160405180910390fd5b6109cd8a8a8a8a610b43565b610a03576040517f09bde33900000000000000000000000000000000000000000000000000000000815260040160405180910390fd5b600181600501600087815260200190815260200160002060006101000a81548160ff021916908315150217905550600181600601600086815260200190815260200160002060006101000a81548160ff02191690831515021790555080600401600081819054906101000a900463ffffffff1680929190610a8390612b4d565b91906101000a81548163ffffffff021916908363ffffffff1602179055505050505050505050505050565b610ab6610dbc565b8060018190555050565b610ac8610dbc565b600073ffffffffffffffffffffffffffffffffffffffff168173ffffffffffffffffffffffffffffffffffffffff1603610b37576040517f08c379a0000000000000000000000000000000000000000000000000000000008152600401610b2e90612beb565b60405180910390fd5b610b4081610e3a565b50565b6000610b4d611f5f565b604051806040016040528087600060028110610b6c57610b6b612754565b5b6020020151815260200187600160028110610b8a57610b89612754565b5b602002015181525081600001819052506040518060400160405280604051806040016040528088600060028110610bc457610bc3612754565b5b6020020151600060028110610bdc57610bdb612754565b5b6020020151815260200188600060028110610bfa57610bf9612754565b5b6020020151600160028110610c1257610c11612754565b5b60200201518152508152602001604051806040016040528088600160028110610c3e57610c3d612754565b5b6020020151600060028110610c5657610c55612754565b5b6020020151815260200188600160028110610c7457610c73612754565b5b6020020151600160028110610c8c57610c8b612754565b5b60200201518152508152508160200181905250604051806040016040528085600060028110610cbe57610cbd612754565b5b6020020151815260200185600160028110610cdc57610cdb612754565b5b602002015181525081604001819052506000600667ffffffffffffffff811115610d0957610d086120ff565b5b604051908082528060200260200182016040528015610d375781602001602082028036833780820191505090505b50905060005b6006811015610d9057848160068110610d5957610d58612754565b5b6020020151828281518110610d7157610d70612754565b5b6020026020010181815250508080610d8890612c0b565b915050610d3d565b506000610d9d8284610efe565b03610dad57600192505050610db4565b6000925050505b949350505050565b610dc46110f1565b73ffffffffffffffffffffffffffffffffffffffff16610de261072b565b73ffffffffffffffffffffffffffffffffffffffff1614610e38576040517f08c379a0000000000000000000000000000000000000000000000000000000008152600401610e2f90612c9f565b60405180910390fd5b565b60008060009054906101000a900473ffffffffffffffffffffffffffffffffffffffff169050816000806101000a81548173ffffffffffffffffffffffffffffffffffffffff021916908373ffffffffffffffffffffffffffffffffffffffff1602179055508173ffffffffffffffffffffffffffffffffffffffff168173ffffffffffffffffffffffffffffffffffffffff167f8be0079c531659141344cd1fd0a4f28419497f9722a3daafe3b4186f6b6457e060405160405180910390a35050565b6000807f30644e72e131a029b85045b68181585d2833e84879b9709143e1f593f000000190506000610f2e6110f9565b905080608001515160018651610f44919061280c565b14610f84576040517f08c379a0000000000000000000000000000000000000000000000000000000008152600401610f7b90612d0b565b60405180910390fd5b60006040518060400160405280600081526020016000815250905060005b86518110156110735783878281518110610fbf57610fbe612754565b5b602002602001015110611007576040517f08c379a0000000000000000000000000000000000000000000000000000000008152600401610ffe90612d77565b60405180910390fd5b61105e826110598560800151600185611020919061280c565b8151811061103157611030612754565b5b60200260200101518a858151811061104c5761104b612754565b5b6020026020010151611755565b61182d565b9150808061106b90612c0b565b915050610fa2565b5061109d8183608001516000815181106110905761108f612754565b5b602002602001015161182d565b90506110d36110af866000015161192b565b8660200151846000015185602001518587604001518b6040015189606001516119d0565b6110e357600193505050506110eb565b600093505050505b92915050565b600033905090565b611101611f92565b60405180604001604052807f2d4d9aa7e302d9df41749d5507949d05dbea33fbb16c643b22f599a2be6df2e281526020017f14bedd503c37ceb061d8ec60209fe345ce89830a19230301f076caff004d19268152508160000181905250604051806040016040528060405180604001604052807f0967032fcbf776d1afc985f88877f182d38480a653f2decaa9794cbc3bf3060c81526020017f0e187847ad4c798374d0d6732bf501847dd68bc0e071241e0213bc7fc13db7ab815250815260200160405180604001604052807f304cfbd1e08a704a99f5e847d93f8c3caafddec46b7a0d379da69a4d112346a781526020017f1739c1b1a457a8c7313123d24d2f9192f896b7c63eea05a9d57f06547ad0cec88152508152508160200181905250604051806040016040528060405180604001604052807f198e9393920d483a7260bfb731fb5d25f1aa493335a9e71297e485b7aef312c281526020017f1800deef121f1e76426a00665e5c4479674322d4f75edadd46debd5cd992f6ed815250815260200160405180604001604052807f090689d0585ff075ec9e99ad690c3395bc4b313370b38ef355acdadcd122975b81526020017f12c85ea5db8c6deb4aab71808dcb408fe3d1e7690c43d37b4ce6cc0166fa7daa8152508152508160400181905250604051806040016040528060405180604001604052807f2f428c5e5b6a397ee10a16fc04699b70af7aae6a968e378c1561e5dca802e77781526020017f0ce11f4924425b7dbf1543766e05f182505fab2f84426cc520404dbab585f5f4815250815260200160405180604001604052807f152dcf52435046651f3ab2a59543004bf1b15209dc1468b2997f24d02616da0e81526020017f0e67aae970ebe819a1056dabc171309d79f19916aa7ac4a87b9b3968367735e78152508152508160600181905250600767ffffffffffffffff8111156113c8576113c76120ff565b5b60405190808252806020026020018201604052801561140157816020015b6113ee611fd9565b8152602001906001900390816113e65790505b50816080018190525060405180604001604052807f1999634d9ac111e9ef705293d48abc70a58a09546accfd6d815bae3fd28c6acc81526020017f1584704a0d6d036c74df7e132bb0f4fb5be168bc9f56112c207af62ad21e2c6b815250816080015160008151811061147757611476612754565b5b602002602001018190525060405180604001604052807f024c0bebdc8de7ce7c9979580631e1db42279969d03be9ecac64edd9162e5e1681526020017f0fb8033ae38eacdd127ab2d1136a776ea72439acdebf1b73aa870ba5d22a5ea081525081608001516001815181106114ef576114ee612754565b5b602002602001018190525060405180604001604052807f25de9b51289b9f22a67993eda480507600c46321d6c0b500ffdeb7e787040f1281526020017f213265d707155a5a58712ec10c9c7ac0e6e5ceabcc0b8d4ba1d9501bd71aa557815250816080015160028151811061156757611566612754565b5b602002602001018190525060405180604001604052807f12c1a0534e764c81dd78b956c5bb581c08794d3afa56fcdee3a5eaf939b211ba81526020017f23003d42367bc7054cbff84a43ec93112165274e3d8e5b338a01478a14a7da8881525081608001516003815181106115df576115de612754565b5b602002602001018190525060405180604001604052807f1335c3b8fcbe1b4529154fbca507130d8f5855e8399d2db811d053fe78c6da4781526020017f07506384ac07a3848128b7d0ba83f8a590c0f7d2c50cf1bc7ac798daea9d6286815250816080015160048151811061165757611656612754565b5b602002602001018190525060405180604001604052807f21cf8162f355d94c193341bc8c5a89cc710ca98968f3df171ba1ef6bbbc84b0081526020017f08d50b26a49ecd17f5415f14df01387f3a5d7002ce7b8b377b0bab8ba6a35cac81525081608001516005815181106116cf576116ce612754565b5b602002602001018190525060405180604001604052807f1925de9f6ffad0c92d6ce4da86e6561efd33ed21ffef175327512a0ea479fcc181526020017f24394c0ae887609abefafdca66ad5d42b26867ea6c9c94b1436e65d3c6510890815250816080015160068151811061174757611746612754565b5b602002602001018190525090565b61175d611fd9565b611765611ff3565b83600001518160006003811061177e5761177d612754565b5b6020020181815250508360200151816001600381106117a05761179f612754565b5b60200201818152505082816002600381106117be576117bd612754565b5b602002018181525050600060608360808460076107d05a03fa905080600081036117e457fe5b5080611825576040517f08c379a000000000000000000000000000000000000000000000000000000000815260040161181c90612de3565b60405180910390fd5b505092915050565b611835611fd9565b61183d612015565b83600001518160006004811061185657611855612754565b5b60200201818152505083602001518160016004811061187857611877612754565b5b60200201818152505082600001518160026004811061189a57611899612754565b5b6020020181815250508260200151816003600481106118bc576118bb612754565b5b602002018181525050600060608360c08460066107d05a03fa905080600081036118e257fe5b5080611923576040517f08c379a000000000000000000000000000000000000000000000000000000000815260040161191a90612e4f565b60405180910390fd5b505092915050565b611933611fd9565b60007f30644e72e131a029b85045b68181585d97816a916871ca8d3c208c16d87cfd47905060008360000151148015611970575060008360200151145b156119945760405180604001604052806000815260200160008152509150506119cb565b6040518060400160405280846000015181526020018285602001516119b99190612e9e565b836119c49190612ecf565b8152509150505b919050565b600080600467ffffffffffffffff8111156119ee576119ed6120ff565b5b604051908082528060200260200182016040528015611a2757816020015b611a14611fd9565b815260200190600190039081611a0c5790505b5090506000600467ffffffffffffffff811115611a4757611a466120ff565b5b604051908082528060200260200182016040528015611a8057816020015b611a6d612037565b815260200190600190039081611a655790505b5090508a82600081518110611a9857611a97612754565b5b60200260200101819052508882600181518110611ab857611ab7612754565b5b60200260200101819052508682600281518110611ad857611ad7612754565b5b60200260200101819052508482600381518110611af857611af7612754565b5b60200260200101819052508981600081518110611b1857611b17612754565b5b60200260200101819052508781600181518110611b3857611b37612754565b5b60200260200101819052508581600281518110611b5857611b57612754565b5b60200260200101819052508381600381518110611b7857611b77612754565b5b6020026020010181905250611b8d8282611b9d565b9250505098975050505050505050565b60008151835114611be3576040517f08c379a0000000000000000000000000000000000000000000000000000000008152600401611bda90612f4f565b60405180910390fd5b6000835190506000600682611bf891906127b2565b905060008167ffffffffffffffff811115611c1657611c156120ff565b5b604051908082528060200260200182016040528015611c445781602001602082028036833780820191505090505b50905060005b83811015611ec957868181518110611c6557611c64612754565b5b602002602001015160000151826000600684611c8191906127b2565b611c8b919061280c565b81518110611c9c57611c9b612754565b5b602002602001018181525050868181518110611cbb57611cba612754565b5b602002602001015160200151826001600684611cd791906127b2565b611ce1919061280c565b81518110611cf257611cf1612754565b5b602002602001018181525050858181518110611d1157611d10612754565b5b602002602001015160000151600060028110611d3057611d2f612754565b5b6020020151826002600684611d4591906127b2565b611d4f919061280c565b81518110611d6057611d5f612754565b5b602002602001018181525050858181518110611d7f57611d7e612754565b5b602002602001015160000151600160028110611d9e57611d9d612754565b5b6020020151826003600684611db391906127b2565b611dbd919061280c565b81518110611dce57611dcd612754565b5b602002602001018181525050858181518110611ded57611dec612754565b5b602002602001015160200151600060028110611e0c57611e0b612754565b5b6020020151826004600684611e2191906127b2565b611e2b919061280c565b81518110611e3c57611e3b612754565b5b602002602001018181525050858181518110611e5b57611e5a612754565b5b602002602001015160200151600160028110611e7a57611e79612754565b5b6020020151826005600684611e8f91906127b2565b611e99919061280c565b81518110611eaa57611ea9612754565b5b6020026020010181815250508080611ec190612c0b565b915050611c4a565b50611ed261205d565b6000602082602086026020860160086107d05a03fa90508060008103611ef457fe5b5080611f35576040517f08c379a0000000000000000000000000000000000000000000000000000000008152600401611f2c90612fbb565b60405180910390fd5b600082600060018110611f4b57611f4a612754565b5b602002015114159550505050505092915050565b6040518060600160405280611f72611fd9565b8152602001611f7f612037565b8152602001611f8c611fd9565b81525090565b6040518060a00160405280611fa5611fd9565b8152602001611fb2612037565b8152602001611fbf612037565b8152602001611fcc612037565b8152602001606081525090565b604051806040016040528060008152602001600081525090565b6040518060600160405280600390602082028036833780820191505090505090565b6040518060800160405280600490602082028036833780820191505090505090565b604051806040016040528061204a61207f565b815260200161205761207f565b81525090565b6040518060200160405280600190602082028036833780820191505090505090565b6040518060400160405280600290602082028036833780820191505090505090565b6000819050919050565b6120b4816120a1565b82525050565b60006020820190506120cf60008301846120ab565b92915050565b6000604051905090565b600080fd5b600080fd5b600080fd5b6000601f19601f8301169050919050565b7f4e487b7100000000000000000000000000000000000000000000000000000000600052604160045260246000fd5b612137826120ee565b810181811067ffffffffffffffff82111715612156576121556120ff565b5b80604052505050565b60006121696120d5565b9050612175828261212e565b919050565b600067ffffffffffffffff821115612195576121946120ff565b5b602082029050919050565b600080fd5b6121ae816120a1565b81146121b957600080fd5b50565b6000813590506121cb816121a5565b92915050565b60006121e46121df8461217a565b61215f565b905080602084028301858111156121fe576121fd6121a0565b5b835b81811015612227578061221388826121bc565b845260208401935050602081019050612200565b5050509392505050565b600082601f830112612246576122456120e9565b5b60026122538482856121d1565b91505092915050565b600067ffffffffffffffff821115612277576122766120ff565b5b602082029050919050565b60006122956122908461225c565b61215f565b905080604084028301858111156122af576122ae6121a0565b5b835b818110156122d857806122c48882612231565b8452602084019350506040810190506122b1565b5050509392505050565b600082601f8301126122f7576122f66120e9565b5b6002612304848285612282565b91505092915050565b600067ffffffffffffffff821115612328576123276120ff565b5b602082029050919050565b60006123466123418461230d565b61215f565b905080602084028301858111156123605761235f6121a0565b5b835b81811015612389578061237588826121bc565b845260208401935050602081019050612362565b5050509392505050565b600082601f8301126123a8576123a76120e9565b5b60066123b5848285612333565b91505092915050565b6000806000806101c085870312156123d9576123d86120df565b5b60006123e787828801612231565b94505060406123f8878288016122e2565b93505060c061240987828801612231565b92505061010061241b87828801612393565b91505092959194509250565b600080fd5b600067ffffffffffffffff821115612447576124466120ff565b5b612450826120ee565b9050602081019050919050565b82818337600083830152505050565b600061247f61247a8461242c565b61215f565b90508281526020810184848401111561249b5761249a612427565b5b6124a684828561245d565b509392505050565b600082601f8301126124c3576124c26120e9565b5b81356124d384826020860161246c565b91505092915050565b600063ffffffff82169050919050565b6124f5816124dc565b811461250057600080fd5b50565b600081359050612512816124ec565b92915050565b60008060008060808587031215612532576125316120df565b5b6000612540878288016121bc565b945050602085013567ffffffffffffffff811115612561576125606120e4565b5b61256d878288016124ae565b935050604061257e87828801612503565b925050606061258f878288016121bc565b91505092959194509250565b6000602082840312156125b1576125b06120df565b5b60006125bf848285016121bc565b91505092915050565b600081519050919050565b600082825260208201905092915050565b60005b838110156126025780820151818401526020810190506125e7565b60008484015250505050565b6000612619826125c8565b61262381856125d3565b93506126338185602086016125e4565b61263c816120ee565b840191505092915050565b60006020820190508181036000830152612661818461260e565b905092915050565b600073ffffffffffffffffffffffffffffffffffffffff82169050919050565b600061269482612669565b9050919050565b6126a481612689565b82525050565b60006020820190506126bf600083018461269b565b92915050565b6126ce81612689565b81146126d957600080fd5b50565b6000813590506126eb816126c5565b92915050565b600060208284031215612707576127066120df565b5b6000612715848285016126dc565b91505092915050565b60008115159050919050565b6127338161271e565b82525050565b600060208201905061274e600083018461272a565b92915050565b7f4e487b7100000000000000000000000000000000000000000000000000000000600052603260045260246000fd5b7f4e487b7100000000000000000000000000000000000000000000000000000000600052601160045260246000fd5b60006127bd826120a1565b91506127c8836120a1565b9250817fffffffffffffffffffffffffffffffffffffffffffffffffffffffffffffffff048311821515161561280157612800612783565b5b828202905092915050565b6000612817826120a1565b9150612822836120a1565b925082820190508082111561283a57612839612783565b5b92915050565b7f4e487b7100000000000000000000000000000000000000000000000000000000600052600160045260246000fd5b7f4e487b7100000000000000000000000000000000000000000000000000000000600052602260045260246000fd5b600060028204905060018216806128b657607f821691505b6020821081036128c9576128c861286f565b5b50919050565b60008190508160005260206000209050919050565b60006020601f8301049050919050565b600082821b905092915050565b6000600883026129317fffffffffffffffffffffffffffffffffffffffffffffffffffffffffffffffff826128f4565b61293b86836128f4565b95508019841693508086168417925050509392505050565b6000819050919050565b600061297861297361296e846120a1565b612953565b6120a1565b9050919050565b6000819050919050565b6129928361295d565b6129a661299e8261297f565b848454612901565b825550505050565b600090565b6129bb6129ae565b6129c6818484612989565b505050565b5b818110156129ea576129df6000826129b3565b6001810190506129cc565b5050565b601f821115612a2f57612a00816128cf565b612a09846128e4565b81016020851015612a18578190505b612a2c612a24856128e4565b8301826129cb565b50505b505050565b600082821c905092915050565b6000612a5260001984600802612a34565b1980831691505092915050565b6000612a6b8383612a41565b9150826002028217905092915050565b612a84826125c8565b67ffffffffffffffff811115612a9d57612a9c6120ff565b5b612aa7825461289e565b612ab28282856129ee565b600060209050601f831160018114612ae55760008415612ad3578287015190505b612add8582612a5f565b865550612b45565b601f198416612af3866128cf565b60005b82811015612b1b57848901518255600182019150602085019450602081019050612af6565b86831015612b385784890151612b34601f891682612a41565b8355505b6001600288020188555050505b505050505050565b6000612b58826124dc565b915063ffffffff8203612b6e57612b6d612783565b5b600182019050919050565b7f4f776e61626c653a206e6577206f776e657220697320746865207a65726f206160008201527f6464726573730000000000000000000000000000000000000000000000000000602082015250565b6000612bd56026836125d3565b9150612be082612b79565b604082019050919050565b60006020820190508181036000830152612c0481612bc8565b9050919050565b6000612c16826120a1565b91507fffffffffffffffffffffffffffffffffffffffffffffffffffffffffffffffff8203612c4857612c47612783565b5b600182019050919050565b7f4f776e61626c653a2063616c6c6572206973206e6f7420746865206f776e6572600082015250565b6000612c896020836125d3565b9150612c9482612c53565b602082019050919050565b60006020820190508181036000830152612cb881612c7c565b9050919050565b7f76657269666965722d6261642d696e7075740000000000000000000000000000600082015250565b6000612cf56012836125d3565b9150612d0082612cbf565b602082019050919050565b60006020820190508181036000830152612d2481612ce8565b9050919050565b7f76657269666965722d6774652d736e61726b2d7363616c61722d6669656c6400600082015250565b6000612d61601f836125d3565b9150612d6c82612d2b565b602082019050919050565b60006020820190508181036000830152612d9081612d54565b9050919050565b7f70616972696e672d6d756c2d6661696c65640000000000000000000000000000600082015250565b6000612dcd6012836125d3565b9150612dd882612d97565b602082019050919050565b60006020820190508181036000830152612dfc81612dc0565b9050919050565b7f70616972696e672d6164642d6661696c65640000000000000000000000000000600082015250565b6000612e396012836125d3565b9150612e4482612e03565b602082019050919050565b60006020820190508181036000830152612e6881612e2c565b9050919050565b7f4e487b7100000000000000000000000000000000000000000000000000000000600052601260045260246000fd5b6000612ea9826120a1565b9150612eb4836120a1565b925082612ec457612ec3612e6f565b5b828206905092915050565b6000612eda826120a1565b9150612ee5836120a1565b9250828203905081811115612efd57612efc612783565b5b92915050565b7f70616972696e672d6c656e677468732d6661696c656400000000000000000000600082015250565b6000612f396016836125d3565b9150612f4482612f03565b602082019050919050565b60006020820190508181036000830152612f6881612f2c565b9050919050565b7f70616972696e672d6f70636f64652d6661696c65640000000000000000000000600082015250565b6000612fa56015836125d3565b9150612fb082612f6f565b602082019050919050565b60006020820190508181036000830152612fd481612f98565b905091905056fea264697066735822122045503ee9ad426adbcdd2b600cb2adf1a1e817d5e5a03da64d1acc962081c4dd264736f6c63430008100033",
  "linkReferences": {},
  "deployedLinkReferences": {}
}