{
  "_format": "hh-sol-artifact-1",
  "contractName": "Events",
  "sourceName": "src/Events.sol",
  "abi": [
    {
      "inputs": [],
      "name": "DuplicateEntrance",
      "type": "error"
    },
    {
      "inputs": [],
      "name": "DuplicateEvent",
      "type": "error"
    },
    {
      "inputs": [],
      "name": "DuplicateRegistration",
      "type": "error"
    },
    {
      "inputs": [],
      "name": "InvalidEventPrice",
      "type": "error"
    },
    {
      "inputs": [],
      "name": "InvalidProof",
      "type": "error"
    },
    {
      "inputs": [],
      "name": "InvalidSnapshot",
      "type": "error"
    },
    {
      "inputs": [],
      "name": "InvalidStep",
      "type": "error"
    },
    {
      "inputs": [],
      "name": "RegistrationFull",
      "type": "error"
    },
    {
      "inputs": [],
      "name": "UnknownEvent",
      "type": "error"
    },
    {
      "inputs": [],
      "name": "UnknownRegistration",
      "type": "error"
    },
    {
      "anonymous": false,
      "inputs": [
        {
          "indexed": true,
          "internalType": "address",
          "name": "previousOwner",
          "type": "address"
        },
        {
          "indexed": true,
          "internalType": "address",
          "name": "newOwner",
          "type": "address"
        }
      ],
      "name": "OwnershipTransferred",
      "type": "event"
    },
    {
      "inputs": [
        {
          "internalType": "uint256",
          "name": "eventId",
          "type": "uint256"
        },
        {
          "internalType": "string",
          "name": "cid",
          "type": "string"
        },
        {
          "internalType": "uint32",
          "name": "eventCount",
          "type": "uint32"
        },
        {
          "internalType": "uint256",
          "name": "snapshotRoot",
          "type": "uint256"
        }
      ],
      "name": "createEvent",
      "outputs": [],
      "stateMutability": "payable",
      "type": "function"
    },
    {
      "inputs": [
        {
          "internalType": "uint256[2]",
          "name": "a",
          "type": "uint256[2]"
        },
        {
          "internalType": "uint256[2][2]",
          "name": "b",
          "type": "uint256[2][2]"
        },
        {
          "internalType": "uint256[2]",
          "name": "c",
          "type": "uint256[2]"
        },
        {
          "internalType": "uint256[6]",
          "name": "input",
          "type": "uint256[6]"
        }
      ],
      "name": "eventEntrance",
      "outputs": [],
      "stateMutability": "nonpayable",
      "type": "function"
    },
    {
      "inputs": [
        {
          "internalType": "uint256[2]",
          "name": "a",
          "type": "uint256[2]"
        },
        {
          "internalType": "uint256[2][2]",
          "name": "b",
          "type": "uint256[2][2]"
        },
        {
          "internalType": "uint256[2]",
          "name": "c",
          "type": "uint256[2]"
        },
        {
          "internalType": "uint256[6]",
          "name": "input",
          "type": "uint256[6]"
        }
      ],
      "name": "eventRegistration",
      "outputs": [],
      "stateMutability": "nonpayable",
      "type": "function"
    },
    {
      "inputs": [
        {
          "internalType": "uint256",
          "name": "eventId",
          "type": "uint256"
        }
      ],
      "name": "getEventCid",
      "outputs": [
        {
          "internalType": "string",
          "name": "",
          "type": "string"
        }
      ],
      "stateMutability": "view",
      "type": "function"
    },
    {
      "inputs": [
        {
          "internalType": "uint256",
          "name": "eventId",
          "type": "uint256"
        }
      ],
      "name": "getEventCreated",
      "outputs": [
        {
          "internalType": "bool",
          "name": "",
          "type": "bool"
        }
      ],
      "stateMutability": "view",
      "type": "function"
    },
    {
      "inputs": [
        {
          "internalType": "uint256",
          "name": "eventId",
          "type": "uint256"
        }
      ],
      "name": "getEventEntranceCount",
      "outputs": [
        {
          "internalType": "uint32",
          "name": "",
          "type": "uint32"
        }
      ],
      "stateMutability": "view",
      "type": "function"
    },
    {
      "inputs": [
        {
          "internalType": "uint256",
          "name": "eventId",
          "type": "uint256"
        }
      ],
      "name": "getEventRegistrationCount",
      "outputs": [
        {
          "internalType": "uint32",
          "name": "",
          "type": "uint32"
        }
      ],
      "stateMutability": "view",
      "type": "function"
    },
    {
      "inputs": [],
      "name": "getUnitPrice",
      "outputs": [
        {
          "internalType": "uint256",
          "name": "",
          "type": "uint256"
        }
      ],
      "stateMutability": "view",
      "type": "function"
    },
    {
      "inputs": [
        {
          "internalType": "address",
          "name": "user",
          "type": "address"
        }
      ],
      "name": "getUserEventIds",
      "outputs": [
        {
          "internalType": "uint256[]",
          "name": "",
          "type": "uint256[]"
        }
      ],
      "stateMutability": "view",
      "type": "function"
    },
    {
      "inputs": [],
      "name": "owner",
      "outputs": [
        {
          "internalType": "address",
          "name": "",
          "type": "address"
        }
      ],
      "stateMutability": "view",
      "type": "function"
    },
    {
      "inputs": [],
      "name": "renounceOwnership",
      "outputs": [],
      "stateMutability": "nonpayable",
      "type": "function"
    },
    {
      "inputs": [
        {
          "internalType": "uint256",
          "name": "_unitPrice",
          "type": "uint256"
        }
      ],
      "name": "setUnitPrice",
      "outputs": [],
      "stateMutability": "nonpayable",
      "type": "function"
    },
    {
      "inputs": [
        {
          "internalType": "address",
          "name": "newOwner",
          "type": "address"
        }
      ],
      "name": "transferOwnership",
      "outputs": [],
      "stateMutability": "nonpayable",
      "type": "function"
    },
    {
      "inputs": [
        {
          "internalType": "uint256[2]",
          "name": "a",
          "type": "uint256[2]"
        },
        {
          "internalType": "uint256[2][2]",
          "name": "b",
          "type": "uint256[2][2]"
        },
        {
          "internalType": "uint256[2]",
          "name": "c",
          "type": "uint256[2]"
        },
        {
          "internalType": "uint256[6]",
          "name": "input",
          "type": "uint256[6]"
        }
      ],
      "name": "validateEventEntrance",
      "outputs": [
        {
          "internalType": "bool",
          "name": "",
          "type": "bool"
        }
      ],
      "stateMutability": "view",
      "type": "function"
    },
    {
      "inputs": [
        {
          "internalType": "uint256[2]",
          "name": "a",
          "type": "uint256[2]"
        },
        {
          "internalType": "uint256[2][2]",
          "name": "b",
          "type": "uint256[2][2]"
        },
        {
          "internalType": "uint256[2]",
          "name": "c",
          "type": "uint256[2]"
        },
        {
          "internalType": "uint256[6]",
          "name": "input",
          "type": "uint256[6]"
        }
      ],
      "name": "verifyProof",
      "outputs": [
        {
          "internalType": "bool",
          "name": "r",
          "type": "bool"
        }
      ],
      "stateMutability": "view",
      "type": "function"
    }
  ],
  "bytecode": "0x6080604052620f42406001553480156200001857600080fd5b50620000396200002d6200003f60201b60201c565b6200004760201b60201c565b6200010b565b600033905090565b60008060009054906101000a900473ffffffffffffffffffffffffffffffffffffffff169050816000806101000a81548173ffffffffffffffffffffffffffffffffffffffff021916908373ffffffffffffffffffffffffffffffffffffffff1602179055508173ffffffffffffffffffffffffffffffffffffffff168173ffffffffffffffffffffffffffffffffffffffff167f8be0079c531659141344cd1fd0a4f28419497f9722a3daafe3b4186f6b6457e060405160405180910390a35050565b613511806200011b6000396000f3fe6080604052600436106100e85760003560e01c806389abd1491161008a578063dc1b732811610059578063dc1b7328146102f9578063e1ab86dc14610322578063f2fde38b1461035f578063f398789b14610388576100e8565b806389abd1491461022b5780638da5cb5b14610268578063a6f8b71414610293578063b289574c146102bc576100e8565b8063319aa7b7116100c6578063319aa7b71461017e57806367a684e91461019a578063715018a6146101d7578063842d9dc0146101ee576100e8565b8063012a33aa146100ed57806302573230146101185780631cc63a1114610155575b600080fd5b3480156100f957600080fd5b506101026103c5565b60405161010f91906124b0565b60405180910390f35b34801561012457600080fd5b5061013f600480360381019061013a919061250b565b6103cf565b60405161014c9190612557565b60405180910390f35b34801561016157600080fd5b5061017c6004803603810190610177919061281b565b6103ff565b005b61019860048036038101906101939190612965565b610516565b005b3480156101a657600080fd5b506101c160048036038101906101bc9190612a46565b6106c3565b6040516101ce9190612b31565b60405180910390f35b3480156101e357600080fd5b506101ec61075a565b005b3480156101fa57600080fd5b506102156004803603810190610210919061250b565b61076e565b6040516102229190612bd2565b60405180910390f35b34801561023757600080fd5b50610252600480360381019061024d919061250b565b610816565b60405161025f9190612c0f565b60405180910390f35b34801561027457600080fd5b5061027d610843565b60405161028a9190612c39565b60405180910390f35b34801561029f57600080fd5b506102ba60048036038101906102b5919061281b565b61086c565b005b3480156102c857600080fd5b506102e360048036038101906102de919061281b565b610bc6565b6040516102f09190612c0f565b60405180910390f35b34801561030557600080fd5b50610320600480360381019061031b919061250b565b610e74565b005b34801561032e57600080fd5b506103496004803603810190610344919061250b565b610e86565b6040516103569190612557565b60405180910390f35b34801561036b57600080fd5b5061038660048036038101906103819190612a46565b610eb6565b005b34801561039457600080fd5b506103af60048036038101906103aa919061281b565b610f39565b6040516103bc9190612c0f565b60405180910390f35b6000600154905090565b60006003600083815260200190815260200160002060040160049054906101000a900463ffffffff169050919050565b61040b84848484610bc6565b5060008160026006811061042257610421612c54565b5b6020020151905060008260046006811061043f5761043e612c54565b5b60200201517001000000000000000000000000000000008460036006811061046a57610469612c54565b5b60200201516104799190612cb2565b6104839190612d0c565b90506000600360008381526020019081526020016000209050600181600701600085815260200190815260200160002060006101000a81548160ff02191690831515021790555080600401600481819054906101000a900463ffffffff16809291906104ee90612d40565b91906101000a81548163ffffffff021916908363ffffffff1602179055505050505050505050565b6000841161052757610526612d6c565b5b60008263ffffffff161161053e5761053d612d6c565b5b6000811161054f5761054e612d6c565b5b60006003600086815260200190815260200160002090508060000160009054906101000a900460ff16156105af576040517fa2b3fcbd00000000000000000000000000000000000000000000000000000000815260040160405180910390fd5b8263ffffffff166001546105c39190612cb2565b34146105fb576040517f070f3ba600000000000000000000000000000000000000000000000000000000815260040160405180910390fd5b60018160000160006101000a81548160ff021916908315150217905550838160010190816106299190612fa7565b50828160020160006101000a81548163ffffffff021916908363ffffffff160217905550818160030181905550600260003373ffffffffffffffffffffffffffffffffffffffff1673ffffffffffffffffffffffffffffffffffffffff1681526020019081526020016000208590806001815401808255809150506001900390600052602060002001600090919091909150555050505050565b6060600260008373ffffffffffffffffffffffffffffffffffffffff1673ffffffffffffffffffffffffffffffffffffffff16815260200190815260200160002080548060200260200160405190810160405280929190818152602001828054801561074e57602002820191906000526020600020905b81548152602001906001019080831161073a575b50505050509050919050565b6107626111b2565b61076c6000611230565b565b606060036000838152602001908152602001600020600101805461079190612dca565b80601f01602080910402602001604051908101604052809291908181526020018280546107bd90612dca565b801561080a5780601f106107df5761010080835404028352916020019161080a565b820191906000526020600020905b8154815290600101906020018083116107ed57829003601f168201915b50505050509050919050565b60006003600083815260200190815260200160002060000160009054906101000a900460ff169050919050565b60008060009054906101000a900473ffffffffffffffffffffffffffffffffffffffff16905090565b60008160006006811061088257610881612c54565b5b6020020151905060008260016006811061089f5761089e612c54565b5b602002015190506000836002600681106108bc576108bb612c54565b5b602002015190506000846004600681106108d9576108d8612c54565b5b60200201517001000000000000000000000000000000008660036006811061090457610903612c54565b5b60200201516109139190612cb2565b61091d9190612d0c565b905060008560056006811061093557610934612c54565b5b6020020151905060006003600084815260200190815260200160002090508060000160009054906101000a900460ff1661099b576040517f37b0f43800000000000000000000000000000000000000000000000000000000815260040160405180910390fd5b858160030154146109d8576040517f40f08cfe00000000000000000000000000000000000000000000000000000000815260040160405180910390fd5b60018214610a12576040517f28cda61500000000000000000000000000000000000000000000000000000000815260040160405180910390fd5b80600601600085815260200190815260200160002060009054906101000a900460ff1615610a6c576040517f63a185d500000000000000000000000000000000000000000000000000000000815260040160405180910390fd5b8060020160009054906101000a900463ffffffff1663ffffffff168160040160009054906101000a900463ffffffff1663ffffffff1603610ad9576040517fb3c870e000000000000000000000000000000000000000000000000000000000815260040160405180910390fd5b610ae58a8a8a8a610f39565b610b1b576040517f09bde33900000000000000000000000000000000000000000000000000000000815260040160405180910390fd5b600181600501600087815260200190815260200160002060006101000a81548160ff021916908315150217905550600181600601600086815260200190815260200160002060006101000a81548160ff02191690831515021790555080600401600081819054906101000a900463ffffffff1680929190610b9b90612d40565b91906101000a81548163ffffffff021916908363ffffffff1602179055505050505050505050505050565b60008082600060068110610bdd57610bdc612c54565b5b60200201519050600083600160068110610bfa57610bf9612c54565b5b60200201519050600084600260068110610c1757610c16612c54565b5b60200201519050600085600460068110610c3457610c33612c54565b5b602002015170010000000000000000000000000000000087600360068110610c5f57610c5e612c54565b5b6020020151610c6e9190612cb2565b610c789190612d0c565b9050600086600560068110610c9057610c8f612c54565b5b6020020151905060006003600084815260200190815260200160002090508060000160009054906101000a900460ff16610cf6576040517f37b0f43800000000000000000000000000000000000000000000000000000000815260040160405180910390fd5b85816003015414610d33576040517f40f08cfe00000000000000000000000000000000000000000000000000000000815260040160405180910390fd5b60028214610d6d576040517f28cda61500000000000000000000000000000000000000000000000000000000815260040160405180910390fd5b80600501600086815260200190815260200160002060009054906101000a900460ff16610dc6576040517fbd115ed600000000000000000000000000000000000000000000000000000000815260040160405180910390fd5b80600701600085815260200190815260200160002060009054906101000a900460ff1615610e20576040517f19cfd68200000000000000000000000000000000000000000000000000000000815260040160405180910390fd5b610e2c8b8b8b8b610f39565b610e62576040517f09bde33900000000000000000000000000000000000000000000000000000000815260040160405180910390fd5b60019650505050505050949350505050565b610e7c6111b2565b8060018190555050565b60006003600083815260200190815260200160002060040160009054906101000a900463ffffffff169050919050565b610ebe6111b2565b600073ffffffffffffffffffffffffffffffffffffffff168173ffffffffffffffffffffffffffffffffffffffff1603610f2d576040517f08c379a0000000000000000000000000000000000000000000000000000000008152600401610f24906130eb565b60405180910390fd5b610f3681611230565b50565b6000610f43612355565b604051806040016040528087600060028110610f6257610f61612c54565b5b6020020151815260200187600160028110610f8057610f7f612c54565b5b602002015181525081600001819052506040518060400160405280604051806040016040528088600060028110610fba57610fb9612c54565b5b6020020151600060028110610fd257610fd1612c54565b5b6020020151815260200188600060028110610ff057610fef612c54565b5b602002015160016002811061100857611007612c54565b5b6020020151815250815260200160405180604001604052808860016002811061103457611033612c54565b5b602002015160006002811061104c5761104b612c54565b5b602002015181526020018860016002811061106a57611069612c54565b5b602002015160016002811061108257611081612c54565b5b602002015181525081525081602001819052506040518060400160405280856000600281106110b4576110b3612c54565b5b60200201518152602001856001600281106110d2576110d1612c54565b5b602002015181525081604001819052506000600667ffffffffffffffff8111156110ff576110fe612588565b5b60405190808252806020026020018201604052801561112d5781602001602082028036833780820191505090505b50905060005b60068110156111865784816006811061114f5761114e612c54565b5b602002015182828151811061116757611166612c54565b5b602002602001018181525050808061117e9061310b565b915050611133565b50600061119382846112f4565b036111a3576001925050506111aa565b6000925050505b949350505050565b6111ba6114e7565b73ffffffffffffffffffffffffffffffffffffffff166111d8610843565b73ffffffffffffffffffffffffffffffffffffffff161461122e576040517f08c379a00000000000000000000000000000000000000000000000000000000081526004016112259061319f565b60405180910390fd5b565b60008060009054906101000a900473ffffffffffffffffffffffffffffffffffffffff169050816000806101000a81548173ffffffffffffffffffffffffffffffffffffffff021916908373ffffffffffffffffffffffffffffffffffffffff1602179055508173ffffffffffffffffffffffffffffffffffffffff168173ffffffffffffffffffffffffffffffffffffffff167f8be0079c531659141344cd1fd0a4f28419497f9722a3daafe3b4186f6b6457e060405160405180910390a35050565b6000807f30644e72e131a029b85045b68181585d2833e84879b9709143e1f593f0000001905060006113246114ef565b90508060800151516001865161133a9190612d0c565b1461137a576040517f08c379a00000000000000000000000000000000000000000000000000000000081526004016113719061320b565b60405180910390fd5b60006040518060400160405280600081526020016000815250905060005b865181101561146957838782815181106113b5576113b4612c54565b5b6020026020010151106113fd576040517f08c379a00000000000000000000000000000000000000000000000000000000081526004016113f490613277565b60405180910390fd5b6114548261144f85608001516001856114169190612d0c565b8151811061142757611426612c54565b5b60200260200101518a858151811061144257611441612c54565b5b6020026020010151611b4b565b611c23565b915080806114619061310b565b915050611398565b5061149381836080015160008151811061148657611485612c54565b5b6020026020010151611c23565b90506114c96114a58660000151611d21565b8660200151846000015185602001518587604001518b604001518960600151611dc6565b6114d957600193505050506114e1565b600093505050505b92915050565b600033905090565b6114f7612388565b60405180604001604052807f2d4d9aa7e302d9df41749d5507949d05dbea33fbb16c643b22f599a2be6df2e281526020017f14bedd503c37ceb061d8ec60209fe345ce89830a19230301f076caff004d19268152508160000181905250604051806040016040528060405180604001604052807f0967032fcbf776d1afc985f88877f182d38480a653f2decaa9794cbc3bf3060c81526020017f0e187847ad4c798374d0d6732bf501847dd68bc0e071241e0213bc7fc13db7ab815250815260200160405180604001604052807f304cfbd1e08a704a99f5e847d93f8c3caafddec46b7a0d379da69a4d112346a781526020017f1739c1b1a457a8c7313123d24d2f9192f896b7c63eea05a9d57f06547ad0cec88152508152508160200181905250604051806040016040528060405180604001604052807f198e9393920d483a7260bfb731fb5d25f1aa493335a9e71297e485b7aef312c281526020017f1800deef121f1e76426a00665e5c4479674322d4f75edadd46debd5cd992f6ed815250815260200160405180604001604052807f090689d0585ff075ec9e99ad690c3395bc4b313370b38ef355acdadcd122975b81526020017f12c85ea5db8c6deb4aab71808dcb408fe3d1e7690c43d37b4ce6cc0166fa7daa8152508152508160400181905250604051806040016040528060405180604001604052807f2f428c5e5b6a397ee10a16fc04699b70af7aae6a968e378c1561e5dca802e77781526020017f0ce11f4924425b7dbf1543766e05f182505fab2f84426cc520404dbab585f5f4815250815260200160405180604001604052807f152dcf52435046651f3ab2a59543004bf1b15209dc1468b2997f24d02616da0e81526020017f0e67aae970ebe819a1056dabc171309d79f19916aa7ac4a87b9b3968367735e78152508152508160600181905250600767ffffffffffffffff8111156117be576117bd612588565b5b6040519080825280602002602001820160405280156117f757816020015b6117e46123cf565b8152602001906001900390816117dc5790505b50816080018190525060405180604001604052807f1999634d9ac111e9ef705293d48abc70a58a09546accfd6d815bae3fd28c6acc81526020017f1584704a0d6d036c74df7e132bb0f4fb5be168bc9f56112c207af62ad21e2c6b815250816080015160008151811061186d5761186c612c54565b5b602002602001018190525060405180604001604052807f024c0bebdc8de7ce7c9979580631e1db42279969d03be9ecac64edd9162e5e1681526020017f0fb8033ae38eacdd127ab2d1136a776ea72439acdebf1b73aa870ba5d22a5ea081525081608001516001815181106118e5576118e4612c54565b5b602002602001018190525060405180604001604052807f25de9b51289b9f22a67993eda480507600c46321d6c0b500ffdeb7e787040f1281526020017f213265d707155a5a58712ec10c9c7ac0e6e5ceabcc0b8d4ba1d9501bd71aa557815250816080015160028151811061195d5761195c612c54565b5b602002602001018190525060405180604001604052807f12c1a0534e764c81dd78b956c5bb581c08794d3afa56fcdee3a5eaf939b211ba81526020017f23003d42367bc7054cbff84a43ec93112165274e3d8e5b338a01478a14a7da8881525081608001516003815181106119d5576119d4612c54565b5b602002602001018190525060405180604001604052807f1335c3b8fcbe1b4529154fbca507130d8f5855e8399d2db811d053fe78c6da4781526020017f07506384ac07a3848128b7d0ba83f8a590c0f7d2c50cf1bc7ac798daea9d62868152508160800151600481518110611a4d57611a4c612c54565b5b602002602001018190525060405180604001604052807f21cf8162f355d94c193341bc8c5a89cc710ca98968f3df171ba1ef6bbbc84b0081526020017f08d50b26a49ecd17f5415f14df01387f3a5d7002ce7b8b377b0bab8ba6a35cac8152508160800151600581518110611ac557611ac4612c54565b5b602002602001018190525060405180604001604052807f1925de9f6ffad0c92d6ce4da86e6561efd33ed21ffef175327512a0ea479fcc181526020017f24394c0ae887609abefafdca66ad5d42b26867ea6c9c94b1436e65d3c65108908152508160800151600681518110611b3d57611b3c612c54565b5b602002602001018190525090565b611b536123cf565b611b5b6123e9565b836000015181600060038110611b7457611b73612c54565b5b602002018181525050836020015181600160038110611b9657611b95612c54565b5b6020020181815250508281600260038110611bb457611bb3612c54565b5b602002018181525050600060608360808460076107d05a03fa90508060008103611bda57fe5b5080611c1b576040517f08c379a0000000000000000000000000000000000000000000000000000000008152600401611c12906132e3565b60405180910390fd5b505092915050565b611c2b6123cf565b611c3361240b565b836000015181600060048110611c4c57611c4b612c54565b5b602002018181525050836020015181600160048110611c6e57611c6d612c54565b5b602002018181525050826000015181600260048110611c9057611c8f612c54565b5b602002018181525050826020015181600360048110611cb257611cb1612c54565b5b602002018181525050600060608360c08460066107d05a03fa90508060008103611cd857fe5b5080611d19576040517f08c379a0000000000000000000000000000000000000000000000000000000008152600401611d109061334f565b60405180910390fd5b505092915050565b611d296123cf565b60007f30644e72e131a029b85045b68181585d97816a916871ca8d3c208c16d87cfd47905060008360000151148015611d66575060008360200151145b15611d8a576040518060400160405280600081526020016000815250915050611dc1565b604051806040016040528084600001518152602001828560200151611daf919061339e565b83611dba91906133cf565b8152509150505b919050565b600080600467ffffffffffffffff811115611de457611de3612588565b5b604051908082528060200260200182016040528015611e1d57816020015b611e0a6123cf565b815260200190600190039081611e025790505b5090506000600467ffffffffffffffff811115611e3d57611e3c612588565b5b604051908082528060200260200182016040528015611e7657816020015b611e6361242d565b815260200190600190039081611e5b5790505b5090508a82600081518110611e8e57611e8d612c54565b5b60200260200101819052508882600181518110611eae57611ead612c54565b5b60200260200101819052508682600281518110611ece57611ecd612c54565b5b60200260200101819052508482600381518110611eee57611eed612c54565b5b60200260200101819052508981600081518110611f0e57611f0d612c54565b5b60200260200101819052508781600181518110611f2e57611f2d612c54565b5b60200260200101819052508581600281518110611f4e57611f4d612c54565b5b60200260200101819052508381600381518110611f6e57611f6d612c54565b5b6020026020010181905250611f838282611f93565b9250505098975050505050505050565b60008151835114611fd9576040517f08c379a0000000000000000000000000000000000000000000000000000000008152600401611fd09061344f565b60405180910390fd5b6000835190506000600682611fee9190612cb2565b905060008167ffffffffffffffff81111561200c5761200b612588565b5b60405190808252806020026020018201604052801561203a5781602001602082028036833780820191505090505b50905060005b838110156122bf5786818151811061205b5761205a612c54565b5b6020026020010151600001518260006006846120779190612cb2565b6120819190612d0c565b8151811061209257612091612c54565b5b6020026020010181815250508681815181106120b1576120b0612c54565b5b6020026020010151602001518260016006846120cd9190612cb2565b6120d79190612d0c565b815181106120e8576120e7612c54565b5b60200260200101818152505085818151811061210757612106612c54565b5b60200260200101516000015160006002811061212657612125612c54565b5b602002015182600260068461213b9190612cb2565b6121459190612d0c565b8151811061215657612155612c54565b5b60200260200101818152505085818151811061217557612174612c54565b5b60200260200101516000015160016002811061219457612193612c54565b5b60200201518260036006846121a99190612cb2565b6121b39190612d0c565b815181106121c4576121c3612c54565b5b6020026020010181815250508581815181106121e3576121e2612c54565b5b60200260200101516020015160006002811061220257612201612c54565b5b60200201518260046006846122179190612cb2565b6122219190612d0c565b8151811061223257612231612c54565b5b60200260200101818152505085818151811061225157612250612c54565b5b6020026020010151602001516001600281106122705761226f612c54565b5b60200201518260056006846122859190612cb2565b61228f9190612d0c565b815181106122a05761229f612c54565b5b60200260200101818152505080806122b79061310b565b915050612040565b506122c8612453565b6000602082602086026020860160086107d05a03fa905080600081036122ea57fe5b508061232b576040517f08c379a0000000000000000000000000000000000000000000000000000000008152600401612322906134bb565b60405180910390fd5b60008260006001811061234157612340612c54565b5b602002015114159550505050505092915050565b60405180606001604052806123686123cf565b815260200161237561242d565b81526020016123826123cf565b81525090565b6040518060a0016040528061239b6123cf565b81526020016123a861242d565b81526020016123b561242d565b81526020016123c261242d565b8152602001606081525090565b604051806040016040528060008152602001600081525090565b6040518060600160405280600390602082028036833780820191505090505090565b6040518060800160405280600490602082028036833780820191505090505090565b6040518060400160405280612440612475565b815260200161244d612475565b81525090565b6040518060200160405280600190602082028036833780820191505090505090565b6040518060400160405280600290602082028036833780820191505090505090565b6000819050919050565b6124aa81612497565b82525050565b60006020820190506124c560008301846124a1565b92915050565b6000604051905090565b600080fd5b600080fd5b6124e881612497565b81146124f357600080fd5b50565b600081359050612505816124df565b92915050565b600060208284031215612521576125206124d5565b5b600061252f848285016124f6565b91505092915050565b600063ffffffff82169050919050565b61255181612538565b82525050565b600060208201905061256c6000830184612548565b92915050565b600080fd5b6000601f19601f8301169050919050565b7f4e487b7100000000000000000000000000000000000000000000000000000000600052604160045260246000fd5b6125c082612577565b810181811067ffffffffffffffff821117156125df576125de612588565b5b80604052505050565b60006125f26124cb565b90506125fe82826125b7565b919050565b600067ffffffffffffffff82111561261e5761261d612588565b5b602082029050919050565b600080fd5b600061264161263c84612603565b6125e8565b9050806020840283018581111561265b5761265a612629565b5b835b81811015612684578061267088826124f6565b84526020840193505060208101905061265d565b5050509392505050565b600082601f8301126126a3576126a2612572565b5b60026126b084828561262e565b91505092915050565b600067ffffffffffffffff8211156126d4576126d3612588565b5b602082029050919050565b60006126f26126ed846126b9565b6125e8565b9050806040840283018581111561270c5761270b612629565b5b835b818110156127355780612721888261268e565b84526020840193505060408101905061270e565b5050509392505050565b600082601f83011261275457612753612572565b5b60026127618482856126df565b91505092915050565b600067ffffffffffffffff82111561278557612784612588565b5b602082029050919050565b60006127a361279e8461276a565b6125e8565b905080602084028301858111156127bd576127bc612629565b5b835b818110156127e657806127d288826124f6565b8452602084019350506020810190506127bf565b5050509392505050565b600082601f83011261280557612804612572565b5b6006612812848285612790565b91505092915050565b6000806000806101c08587031215612836576128356124d5565b5b60006128448782880161268e565b94505060406128558782880161273f565b93505060c06128668782880161268e565b925050610100612878878288016127f0565b91505092959194509250565b600080fd5b600067ffffffffffffffff8211156128a4576128a3612588565b5b6128ad82612577565b9050602081019050919050565b82818337600083830152505050565b60006128dc6128d784612889565b6125e8565b9050828152602081018484840111156128f8576128f7612884565b5b6129038482856128ba565b509392505050565b600082601f8301126129205761291f612572565b5b81356129308482602086016128c9565b91505092915050565b61294281612538565b811461294d57600080fd5b50565b60008135905061295f81612939565b92915050565b6000806000806080858703121561297f5761297e6124d5565b5b600061298d878288016124f6565b945050602085013567ffffffffffffffff8111156129ae576129ad6124da565b5b6129ba8782880161290b565b93505060406129cb87828801612950565b92505060606129dc878288016124f6565b91505092959194509250565b600073ffffffffffffffffffffffffffffffffffffffff82169050919050565b6000612a13826129e8565b9050919050565b612a2381612a08565b8114612a2e57600080fd5b50565b600081359050612a4081612a1a565b92915050565b600060208284031215612a5c57612a5b6124d5565b5b6000612a6a84828501612a31565b91505092915050565b600081519050919050565b600082825260208201905092915050565b6000819050602082019050919050565b612aa881612497565b82525050565b6000612aba8383612a9f565b60208301905092915050565b6000602082019050919050565b6000612ade82612a73565b612ae88185612a7e565b9350612af383612a8f565b8060005b83811015612b24578151612b0b8882612aae565b9750612b1683612ac6565b925050600181019050612af7565b5085935050505092915050565b60006020820190508181036000830152612b4b8184612ad3565b905092915050565b600081519050919050565b600082825260208201905092915050565b60005b83811015612b8d578082015181840152602081019050612b72565b60008484015250505050565b6000612ba482612b53565b612bae8185612b5e565b9350612bbe818560208601612b6f565b612bc781612577565b840191505092915050565b60006020820190508181036000830152612bec8184612b99565b905092915050565b60008115159050919050565b612c0981612bf4565b82525050565b6000602082019050612c246000830184612c00565b92915050565b612c3381612a08565b82525050565b6000602082019050612c4e6000830184612c2a565b92915050565b7f4e487b7100000000000000000000000000000000000000000000000000000000600052603260045260246000fd5b7f4e487b7100000000000000000000000000000000000000000000000000000000600052601160045260246000fd5b6000612cbd82612497565b9150612cc883612497565b9250817fffffffffffffffffffffffffffffffffffffffffffffffffffffffffffffffff0483118215151615612d0157612d00612c83565b5b828202905092915050565b6000612d1782612497565b9150612d2283612497565b9250828201905080821115612d3a57612d39612c83565b5b92915050565b6000612d4b82612538565b915063ffffffff8203612d6157612d60612c83565b5b600182019050919050565b7f4e487b7100000000000000000000000000000000000000000000000000000000600052600160045260246000fd5b7f4e487b7100000000000000000000000000000000000000000000000000000000600052602260045260246000fd5b60006002820490506001821680612de257607f821691505b602082108103612df557612df4612d9b565b5b50919050565b60008190508160005260206000209050919050565b60006020601f8301049050919050565b600082821b905092915050565b600060088302612e5d7fffffffffffffffffffffffffffffffffffffffffffffffffffffffffffffffff82612e20565b612e678683612e20565b95508019841693508086168417925050509392505050565b6000819050919050565b6000612ea4612e9f612e9a84612497565b612e7f565b612497565b9050919050565b6000819050919050565b612ebe83612e89565b612ed2612eca82612eab565b848454612e2d565b825550505050565b600090565b612ee7612eda565b612ef2818484612eb5565b505050565b5b81811015612f1657612f0b600082612edf565b600181019050612ef8565b5050565b601f821115612f5b57612f2c81612dfb565b612f3584612e10565b81016020851015612f44578190505b612f58612f5085612e10565b830182612ef7565b50505b505050565b600082821c905092915050565b6000612f7e60001984600802612f60565b1980831691505092915050565b6000612f978383612f6d565b9150826002028217905092915050565b612fb082612b53565b67ffffffffffffffff811115612fc957612fc8612588565b5b612fd38254612dca565b612fde828285612f1a565b600060209050601f8311600181146130115760008415612fff578287015190505b6130098582612f8b565b865550613071565b601f19841661301f86612dfb565b60005b8281101561304757848901518255600182019150602085019450602081019050613022565b868310156130645784890151613060601f891682612f6d565b8355505b6001600288020188555050505b505050505050565b7f4f776e61626c653a206e6577206f776e657220697320746865207a65726f206160008201527f6464726573730000000000000000000000000000000000000000000000000000602082015250565b60006130d5602683612b5e565b91506130e082613079565b604082019050919050565b60006020820190508181036000830152613104816130c8565b9050919050565b600061311682612497565b91507fffffffffffffffffffffffffffffffffffffffffffffffffffffffffffffffff820361314857613147612c83565b5b600182019050919050565b7f4f776e61626c653a2063616c6c6572206973206e6f7420746865206f776e6572600082015250565b6000613189602083612b5e565b915061319482613153565b602082019050919050565b600060208201905081810360008301526131b88161317c565b9050919050565b7f76657269666965722d6261642d696e7075740000000000000000000000000000600082015250565b60006131f5601283612b5e565b9150613200826131bf565b602082019050919050565b60006020820190508181036000830152613224816131e8565b9050919050565b7f76657269666965722d6774652d736e61726b2d7363616c61722d6669656c6400600082015250565b6000613261601f83612b5e565b915061326c8261322b565b602082019050919050565b6000602082019050818103600083015261329081613254565b9050919050565b7f70616972696e672d6d756c2d6661696c65640000000000000000000000000000600082015250565b60006132cd601283612b5e565b91506132d882613297565b602082019050919050565b600060208201905081810360008301526132fc816132c0565b9050919050565b7f70616972696e672d6164642d6661696c65640000000000000000000000000000600082015250565b6000613339601283612b5e565b915061334482613303565b602082019050919050565b600060208201905081810360008301526133688161332c565b9050919050565b7f4e487b7100000000000000000000000000000000000000000000000000000000600052601260045260246000fd5b60006133a982612497565b91506133b483612497565b9250826133c4576133c361336f565b5b828206905092915050565b60006133da82612497565b91506133e583612497565b92508282039050818111156133fd576133fc612c83565b5b92915050565b7f70616972696e672d6c656e677468732d6661696c656400000000000000000000600082015250565b6000613439601683612b5e565b915061344482613403565b602082019050919050565b600060208201905081810360008301526134688161342c565b9050919050565b7f70616972696e672d6f70636f64652d6661696c65640000000000000000000000600082015250565b60006134a5601583612b5e565b91506134b08261346f565b602082019050919050565b600060208201905081810360008301526134d481613498565b905091905056fea26469706673582212206812840a1be21a1ebe632f0e7c0a2176be173cea58f82d8c6fef8b8f27eee7e764736f6c63430008100033",
  "linkReferences": {},
  "deployedLinkReferences": {}
}