{
  "_format": "hh-sol-artifact-1",
  "contractName": "Events",
  "sourceName": "src/Events.sol",
  "abi": [
    {
      "inputs": [],
      "name": "DuplicateEntrance",
      "type": "error"
    },
    {
      "inputs": [],
      "name": "DuplicateEvent",
      "type": "error"
    },
    {
      "inputs": [],
      "name": "DuplicateRegistration",
      "type": "error"
    },
    {
      "inputs": [],
      "name": "InvalidEventPrice",
      "type": "error"
    },
    {
      "inputs": [],
      "name": "InvalidProof",
      "type": "error"
    },
    {
      "inputs": [],
      "name": "InvalidSnapshot",
      "type": "error"
    },
    {
      "inputs": [],
      "name": "InvalidStep",
      "type": "error"
    },
    {
      "inputs": [],
      "name": "RegistrationFull",
      "type": "error"
    },
    {
      "inputs": [],
      "name": "UnknownEvent",
      "type": "error"
    },
    {
      "inputs": [],
      "name": "UnknownRegistration",
      "type": "error"
    },
    {
      "anonymous": false,
      "inputs": [
        {
          "indexed": true,
          "internalType": "address",
          "name": "previousOwner",
          "type": "address"
        },
        {
          "indexed": true,
          "internalType": "address",
          "name": "newOwner",
          "type": "address"
        }
      ],
      "name": "OwnershipTransferred",
      "type": "event"
    },
    {
      "inputs": [
        {
          "internalType": "uint256",
          "name": "eventId",
          "type": "uint256"
        },
        {
          "internalType": "string",
          "name": "cid",
          "type": "string"
        },
        {
          "internalType": "uint32",
          "name": "eventCount",
          "type": "uint32"
        },
        {
          "internalType": "uint256",
          "name": "snapshotRoot",
          "type": "uint256"
        }
      ],
      "name": "createEvent",
      "outputs": [],
      "stateMutability": "payable",
      "type": "function"
    },
    {
      "inputs": [
        {
          "internalType": "uint256[2]",
          "name": "a",
          "type": "uint256[2]"
        },
        {
          "internalType": "uint256[2][2]",
          "name": "b",
          "type": "uint256[2][2]"
        },
        {
          "internalType": "uint256[2]",
          "name": "c",
          "type": "uint256[2]"
        },
        {
          "internalType": "uint256[5]",
          "name": "input",
          "type": "uint256[5]"
        }
      ],
      "name": "eventEntrance",
      "outputs": [],
      "stateMutability": "nonpayable",
      "type": "function"
    },
    {
      "inputs": [
        {
          "internalType": "uint256[2]",
          "name": "a",
          "type": "uint256[2]"
        },
        {
          "internalType": "uint256[2][2]",
          "name": "b",
          "type": "uint256[2][2]"
        },
        {
          "internalType": "uint256[2]",
          "name": "c",
          "type": "uint256[2]"
        },
        {
          "internalType": "uint256[5]",
          "name": "input",
          "type": "uint256[5]"
        }
      ],
      "name": "eventRegistration",
      "outputs": [],
      "stateMutability": "nonpayable",
      "type": "function"
    },
    {
      "inputs": [
        {
          "internalType": "uint256",
          "name": "eventId",
          "type": "uint256"
        }
      ],
      "name": "getEventCid",
      "outputs": [
        {
          "internalType": "string",
          "name": "",
          "type": "string"
        }
      ],
      "stateMutability": "view",
      "type": "function"
    },
    {
      "inputs": [
        {
          "internalType": "uint256",
          "name": "eventId",
          "type": "uint256"
        }
      ],
      "name": "getEventCreated",
      "outputs": [
        {
          "internalType": "bool",
          "name": "",
          "type": "bool"
        }
      ],
      "stateMutability": "view",
      "type": "function"
    },
    {
      "inputs": [
        {
          "internalType": "uint256",
          "name": "eventId",
          "type": "uint256"
        }
      ],
      "name": "getEventEntranceCount",
      "outputs": [
        {
          "internalType": "uint32",
          "name": "",
          "type": "uint32"
        }
      ],
      "stateMutability": "view",
      "type": "function"
    },
    {
      "inputs": [
        {
          "internalType": "uint256",
          "name": "eventId",
          "type": "uint256"
        }
      ],
      "name": "getEventRegistrationCount",
      "outputs": [
        {
          "internalType": "uint32",
          "name": "",
          "type": "uint32"
        }
      ],
      "stateMutability": "view",
      "type": "function"
    },
    {
      "inputs": [],
      "name": "getUnitPrice",
      "outputs": [
        {
          "internalType": "uint256",
          "name": "",
          "type": "uint256"
        }
      ],
      "stateMutability": "view",
      "type": "function"
    },
    {
      "inputs": [
        {
          "internalType": "address",
          "name": "user",
          "type": "address"
        }
      ],
      "name": "getUserEventIds",
      "outputs": [
        {
          "internalType": "uint256[]",
          "name": "",
          "type": "uint256[]"
        }
      ],
      "stateMutability": "view",
      "type": "function"
    },
    {
      "inputs": [],
      "name": "owner",
      "outputs": [
        {
          "internalType": "address",
          "name": "",
          "type": "address"
        }
      ],
      "stateMutability": "view",
      "type": "function"
    },
    {
      "inputs": [],
      "name": "renounceOwnership",
      "outputs": [],
      "stateMutability": "nonpayable",
      "type": "function"
    },
    {
      "inputs": [
        {
          "internalType": "uint256",
          "name": "_unitPrice",
          "type": "uint256"
        }
      ],
      "name": "setUnitPrice",
      "outputs": [],
      "stateMutability": "nonpayable",
      "type": "function"
    },
    {
      "inputs": [
        {
          "internalType": "address",
          "name": "newOwner",
          "type": "address"
        }
      ],
      "name": "transferOwnership",
      "outputs": [],
      "stateMutability": "nonpayable",
      "type": "function"
    },
    {
      "inputs": [
        {
          "internalType": "uint256[2]",
          "name": "a",
          "type": "uint256[2]"
        },
        {
          "internalType": "uint256[2][2]",
          "name": "b",
          "type": "uint256[2][2]"
        },
        {
          "internalType": "uint256[2]",
          "name": "c",
          "type": "uint256[2]"
        },
        {
          "internalType": "uint256[5]",
          "name": "input",
          "type": "uint256[5]"
        }
      ],
      "name": "validateEventEntrance",
      "outputs": [
        {
          "internalType": "bool",
          "name": "",
          "type": "bool"
        }
      ],
      "stateMutability": "view",
      "type": "function"
    },
    {
      "inputs": [
        {
          "internalType": "uint256[2]",
          "name": "a",
          "type": "uint256[2]"
        },
        {
          "internalType": "uint256[2][2]",
          "name": "b",
          "type": "uint256[2][2]"
        },
        {
          "internalType": "uint256[2]",
          "name": "c",
          "type": "uint256[2]"
        },
        {
          "internalType": "uint256[5]",
          "name": "input",
          "type": "uint256[5]"
        }
      ],
      "name": "validateEventRegistration",
      "outputs": [
        {
          "internalType": "bool",
          "name": "",
          "type": "bool"
        }
      ],
      "stateMutability": "view",
      "type": "function"
    },
    {
      "inputs": [
        {
          "internalType": "uint256[2]",
          "name": "a",
          "type": "uint256[2]"
        },
        {
          "internalType": "uint256[2][2]",
          "name": "b",
          "type": "uint256[2][2]"
        },
        {
          "internalType": "uint256[2]",
          "name": "c",
          "type": "uint256[2]"
        },
        {
          "internalType": "uint256[5]",
          "name": "input",
          "type": "uint256[5]"
        }
      ],
      "name": "verifyProof",
      "outputs": [
        {
          "internalType": "bool",
          "name": "r",
          "type": "bool"
        }
      ],
      "stateMutability": "view",
      "type": "function"
    }
  ],
  "bytecode": "0x608060405265c816bdd9c0006001553480156200001b57600080fd5b506200003c620000306200004260201b60201c565b6200004a60201b60201c565b6200010e565b600033905090565b60008060009054906101000a900473ffffffffffffffffffffffffffffffffffffffff169050816000806101000a81548173ffffffffffffffffffffffffffffffffffffffff021916908373ffffffffffffffffffffffffffffffffffffffff1602179055508173ffffffffffffffffffffffffffffffffffffffff168173ffffffffffffffffffffffffffffffffffffffff167f8be0079c531659141344cd1fd0a4f28419497f9722a3daafe3b4186f6b6457e060405160405180910390a35050565b613491806200011e6000396000f3fe6080604052600436106100f35760003560e01c8063715018a61161008a578063cf3a02c811610059578063cf3a02c814610341578063dc1b73281461037e578063e1ab86dc146103a7578063f2fde38b146103e4576100f3565b8063715018a614610285578063842d9dc01461029c57806389abd149146102d95780638da5cb5b14610316576100f3565b8063329654f9116100c6578063329654f9146101a557806334baeab9146101e257806367a684e91461021f5780636afa225e1461025c576100f3565b8063012a33aa146100f8578063025732301461012357806322fcd05914610160578063319aa7b714610189575b600080fd5b34801561010457600080fd5b5061010d61040d565b60405161011a9190612430565b60405180910390f35b34801561012f57600080fd5b5061014a6004803603810190610145919061248b565b610417565b60405161015791906124d7565b60405180910390f35b34801561016c57600080fd5b506101876004803603810190610182919061279b565b610447565b005b6101a3600480360381019061019e91906128e5565b61056b565b005b3480156101b157600080fd5b506101cc60048036038101906101c7919061279b565b610718565b6040516101d99190612983565b60405180910390f35b3480156101ee57600080fd5b506102096004803603810190610204919061279b565b610987565b6040516102169190612983565b60405180910390f35b34801561022b57600080fd5b50610246600480360381019061024191906129fc565b610c00565b6040516102539190612ae7565b60405180910390f35b34801561026857600080fd5b50610283600480360381019061027e919061279b565b610c97565b005b34801561029157600080fd5b5061029a610d6f565b005b3480156102a857600080fd5b506102c360048036038101906102be919061248b565b610d83565b6040516102d09190612b88565b60405180910390f35b3480156102e557600080fd5b5061030060048036038101906102fb919061248b565b610e2b565b60405161030d9190612983565b60405180910390f35b34801561032257600080fd5b5061032b610e58565b6040516103389190612bb9565b60405180910390f35b34801561034d57600080fd5b506103686004803603810190610363919061279b565b610e81565b6040516103759190612983565b60405180910390f35b34801561038a57600080fd5b506103a560048036038101906103a0919061248b565b6110e6565b005b3480156103b357600080fd5b506103ce60048036038101906103c9919061248b565b6110f8565b6040516103db91906124d7565b60405180910390f35b3480156103f057600080fd5b5061040b600480360381019061040691906129fc565b611128565b005b6000600154905090565b60006003600083815260200190815260200160002060040160049054906101000a900463ffffffff169050919050565b61045384848484610e81565b5060008160016005811061046a57610469612bd4565b5b6020020151905060008260026005811061048757610486612bd4565b5b602002015190506000836003600581106104a4576104a3612bd4565b5b602002015190506000600360008381526020019081526020016000209050600181600501600086815260200190815260200160002060006101000a81548160ff021916908315150217905550600181600601600085815260200190815260200160002060006101000a81548160ff02191690831515021790555080600401600081819054906101000a900463ffffffff168092919061054290612c32565b91906101000a81548163ffffffff021916908363ffffffff160217905550505050505050505050565b6000841161057c5761057b612c5e565b5b60008263ffffffff161161059357610592612c5e565b5b600081116105a4576105a3612c5e565b5b60006003600086815260200190815260200160002090508060000160009054906101000a900460ff1615610604576040517fa2b3fcbd00000000000000000000000000000000000000000000000000000000815260040160405180910390fd5b8263ffffffff166001546106189190612c8d565b3414610650576040517f070f3ba600000000000000000000000000000000000000000000000000000000815260040160405180910390fd5b60018160000160006101000a81548160ff0219169083151502179055508381600101908161067e9190612ef3565b50828160020160006101000a81548163ffffffff021916908363ffffffff160217905550818160030181905550600260003373ffffffffffffffffffffffffffffffffffffffff1673ffffffffffffffffffffffffffffffffffffffff1681526020019081526020016000208590806001815401808255809150506001900390600052602060002001600090919091909150555050505050565b6000808260006005811061072f5761072e612bd4565b5b6020020151905060008360016005811061074c5761074b612bd4565b5b6020020151905060008460026005811061076957610768612bd4565b5b6020020151905060008560036005811061078657610785612bd4565b5b602002015190506000866004600581106107a3576107a2612bd4565b5b6020020151905060006003600084815260200190815260200160002090508060000160009054906101000a900460ff16610809576040517f37b0f43800000000000000000000000000000000000000000000000000000000815260040160405180910390fd5b85816003015414610846576040517f40f08cfe00000000000000000000000000000000000000000000000000000000815260040160405180910390fd5b60028214610880576040517f28cda61500000000000000000000000000000000000000000000000000000000815260040160405180910390fd5b80600501600086815260200190815260200160002060009054906101000a900460ff166108d9576040517fbd115ed600000000000000000000000000000000000000000000000000000000815260040160405180910390fd5b80600701600085815260200190815260200160002060009054906101000a900460ff1615610933576040517f19cfd68200000000000000000000000000000000000000000000000000000000815260040160405180910390fd5b61093f8b8b8b8b610987565b610975576040517f09bde33900000000000000000000000000000000000000000000000000000000815260040160405180910390fd5b60019650505050505050949350505050565b60006109916122d5565b6040518060400160405280876000600281106109b0576109af612bd4565b5b60200201518152602001876001600281106109ce576109cd612bd4565b5b602002015181525081600001819052506040518060400160405280604051806040016040528088600060028110610a0857610a07612bd4565b5b6020020151600060028110610a2057610a1f612bd4565b5b6020020151815260200188600060028110610a3e57610a3d612bd4565b5b6020020151600160028110610a5657610a55612bd4565b5b60200201518152508152602001604051806040016040528088600160028110610a8257610a81612bd4565b5b6020020151600060028110610a9a57610a99612bd4565b5b6020020151815260200188600160028110610ab857610ab7612bd4565b5b6020020151600160028110610ad057610acf612bd4565b5b60200201518152508152508160200181905250604051806040016040528085600060028110610b0257610b01612bd4565b5b6020020151815260200185600160028110610b2057610b1f612bd4565b5b602002015181525081604001819052506000600567ffffffffffffffff811115610b4d57610b4c612508565b5b604051908082528060200260200182016040528015610b7b5781602001602082028036833780820191505090505b50905060005b6005811015610bd457848160058110610b9d57610b9c612bd4565b5b6020020151828281518110610bb557610bb4612bd4565b5b6020026020010181815250508080610bcc90612fc5565b915050610b81565b506000610be182846111ab565b03610bf157600192505050610bf8565b6000925050505b949350505050565b6060600260008373ffffffffffffffffffffffffffffffffffffffff1673ffffffffffffffffffffffffffffffffffffffff168152602001908152602001600020805480602002602001604051908101604052809291908181526020018280548015610c8b57602002820191906000526020600020905b815481526020019060010190808311610c77575b50505050509050919050565b610ca384848484610718565b50600081600260058110610cba57610cb9612bd4565b5b60200201519050600082600360058110610cd757610cd6612bd4565b5b602002015190506000600360008381526020019081526020016000209050600181600701600085815260200190815260200160002060006101000a81548160ff02191690831515021790555080600401600481819054906101000a900463ffffffff1680929190610d4790612c32565b91906101000a81548163ffffffff021916908363ffffffff1602179055505050505050505050565b610d7761139e565b610d81600061141c565b565b6060600360008381526020019081526020016000206001018054610da690612d16565b80601f0160208091040260200160405190810160405280929190818152602001828054610dd290612d16565b8015610e1f5780601f10610df457610100808354040283529160200191610e1f565b820191906000526020600020905b815481529060010190602001808311610e0257829003601f168201915b50505050509050919050565b60006003600083815260200190815260200160002060000160009054906101000a900460ff169050919050565b60008060009054906101000a900473ffffffffffffffffffffffffffffffffffffffff16905090565b60008082600060058110610e9857610e97612bd4565b5b60200201519050600083600260058110610eb557610eb4612bd4565b5b60200201519050600084600360058110610ed257610ed1612bd4565b5b60200201519050600085600460058110610eef57610eee612bd4565b5b6020020151905060006003600084815260200190815260200160002090508060000160009054906101000a900460ff16610f55576040517f37b0f43800000000000000000000000000000000000000000000000000000000815260040160405180910390fd5b84816003015414610f92576040517f40f08cfe00000000000000000000000000000000000000000000000000000000815260040160405180910390fd5b60018214610fcc576040517f28cda61500000000000000000000000000000000000000000000000000000000815260040160405180910390fd5b80600601600085815260200190815260200160002060009054906101000a900460ff1615611026576040517f63a185d500000000000000000000000000000000000000000000000000000000815260040160405180910390fd5b8060020160009054906101000a900463ffffffff1663ffffffff168160040160009054906101000a900463ffffffff1663ffffffff1603611093576040517fb3c870e000000000000000000000000000000000000000000000000000000000815260040160405180910390fd5b61109f8a8a8a8a610987565b6110d5576040517f09bde33900000000000000000000000000000000000000000000000000000000815260040160405180910390fd5b600195505050505050949350505050565b6110ee61139e565b8060018190555050565b60006003600083815260200190815260200160002060040160009054906101000a900463ffffffff169050919050565b61113061139e565b600073ffffffffffffffffffffffffffffffffffffffff168173ffffffffffffffffffffffffffffffffffffffff160361119f576040517f08c379a00000000000000000000000000000000000000000000000000000000081526004016111969061307f565b60405180910390fd5b6111a88161141c565b50565b6000807f30644e72e131a029b85045b68181585d2833e84879b9709143e1f593f0000001905060006111db6114e0565b9050806080015151600186516111f1919061309f565b14611231576040517f08c379a00000000000000000000000000000000000000000000000000000000081526004016112289061311f565b60405180910390fd5b60006040518060400160405280600081526020016000815250905060005b8651811015611320578387828151811061126c5761126b612bd4565b5b6020026020010151106112b4576040517f08c379a00000000000000000000000000000000000000000000000000000000081526004016112ab9061318b565b60405180910390fd5b61130b8261130685608001516001856112cd919061309f565b815181106112de576112dd612bd4565b5b60200260200101518a85815181106112f9576112f8612bd4565b5b6020026020010151611ac3565b611b9b565b9150808061131890612fc5565b91505061124f565b5061134a81836080015160008151811061133d5761133c612bd4565b5b6020026020010151611b9b565b905061138061135c8660000151611c99565b8660200151846000015185602001518587604001518b604001518960600151611d3e565b6113905760019350505050611398565b600093505050505b92915050565b6113a6611f0b565b73ffffffffffffffffffffffffffffffffffffffff166113c4610e58565b73ffffffffffffffffffffffffffffffffffffffff161461141a576040517f08c379a0000000000000000000000000000000000000000000000000000000008152600401611411906131f7565b60405180910390fd5b565b60008060009054906101000a900473ffffffffffffffffffffffffffffffffffffffff169050816000806101000a81548173ffffffffffffffffffffffffffffffffffffffff021916908373ffffffffffffffffffffffffffffffffffffffff1602179055508173ffffffffffffffffffffffffffffffffffffffff168173ffffffffffffffffffffffffffffffffffffffff167f8be0079c531659141344cd1fd0a4f28419497f9722a3daafe3b4186f6b6457e060405160405180910390a35050565b6114e8612308565b60405180604001604052807f2d4d9aa7e302d9df41749d5507949d05dbea33fbb16c643b22f599a2be6df2e281526020017f14bedd503c37ceb061d8ec60209fe345ce89830a19230301f076caff004d19268152508160000181905250604051806040016040528060405180604001604052807f0967032fcbf776d1afc985f88877f182d38480a653f2decaa9794cbc3bf3060c81526020017f0e187847ad4c798374d0d6732bf501847dd68bc0e071241e0213bc7fc13db7ab815250815260200160405180604001604052807f304cfbd1e08a704a99f5e847d93f8c3caafddec46b7a0d379da69a4d112346a781526020017f1739c1b1a457a8c7313123d24d2f9192f896b7c63eea05a9d57f06547ad0cec88152508152508160200181905250604051806040016040528060405180604001604052807f198e9393920d483a7260bfb731fb5d25f1aa493335a9e71297e485b7aef312c281526020017f1800deef121f1e76426a00665e5c4479674322d4f75edadd46debd5cd992f6ed815250815260200160405180604001604052807f090689d0585ff075ec9e99ad690c3395bc4b313370b38ef355acdadcd122975b81526020017f12c85ea5db8c6deb4aab71808dcb408fe3d1e7690c43d37b4ce6cc0166fa7daa8152508152508160400181905250604051806040016040528060405180604001604052807f23d045bfc484ddd832fe8dbcc2cfdfc7ebf305301950f7f294173fa56c35ceff81526020017f20309902334fdfc896a7c6a0435c3edfd0a506c28ab3504232f54f80bc317073815250815260200160405180604001604052807f08ad7eaf472ef70f2a9981bbabeb8fa2aafcb75dd9bb2a7517236a422a2030e381526020017f23c152fcd4d1b7baabfa15ef06b76b7611e59428a9f3356d36720ee9bb220f878152508152508160600181905250600667ffffffffffffffff8111156117af576117ae612508565b5b6040519080825280602002602001820160405280156117e857816020015b6117d561234f565b8152602001906001900390816117cd5790505b50816080018190525060405180604001604052807f26f0b02b49f17ea173edafcb255506a972a0956ce633af61e17e9d25c668b4da81526020017f141119acd5383574a3d1542ad00b38f2045dbcd915112a91f6c83f517f33df3c815250816080015160008151811061185e5761185d612bd4565b5b602002602001018190525060405180604001604052807f23414cf72fe8c9e210060380ba8ecd8f35fb120903afa389a025f139672a48c281526020017f2cabeefa6039c0e6509d8f3ca90776000c2aeae95d8a03d92de0c05970ab206781525081608001516001815181106118d6576118d5612bd4565b5b602002602001018190525060405180604001604052807f16ee506fbd2eace9f4730cba71ea563efe1f8513002d2401693fcc3a9e2eb87281526020017f0827e18fdcd9935783a600d15e058676ca2f8c6ed31871b2dc7a3c587fdd9ee2815250816080015160028151811061194e5761194d612bd4565b5b602002602001018190525060405180604001604052807eac84f5577a5b278966bf94eb123c294885dc5435f5839fc69a2a64f375565681526020017f28506c7b698873c9b595081f9505b309313fa8c268335c38203ed83d387ce27681525081608001516003815181106119c5576119c4612bd4565b5b602002602001018190525060405180604001604052807f2dcefaccd749829736df6548459e88092872238559b64ac76db8896d9c4fd08081526020017f0f9e931d2664f58d4291f77db1f967ade568fe3947d320b5738b044b0b2989b58152508160800151600481518110611a3d57611a3c612bd4565b5b602002602001018190525060405180604001604052807f18c6fb674579d3daac0e427291346e72e138e3b06b2caebc7346e6e05ae21c4881526020017f21251363f14a35a2561923899473722700d74ae203c3ee6821e1478eb7cb5f3c8152508160800151600581518110611ab557611ab4612bd4565b5b602002602001018190525090565b611acb61234f565b611ad3612369565b836000015181600060038110611aec57611aeb612bd4565b5b602002018181525050836020015181600160038110611b0e57611b0d612bd4565b5b6020020181815250508281600260038110611b2c57611b2b612bd4565b5b602002018181525050600060608360808460076107d05a03fa90508060008103611b5257fe5b5080611b93576040517f08c379a0000000000000000000000000000000000000000000000000000000008152600401611b8a90613263565b60405180910390fd5b505092915050565b611ba361234f565b611bab61238b565b836000015181600060048110611bc457611bc3612bd4565b5b602002018181525050836020015181600160048110611be657611be5612bd4565b5b602002018181525050826000015181600260048110611c0857611c07612bd4565b5b602002018181525050826020015181600360048110611c2a57611c29612bd4565b5b602002018181525050600060608360c08460066107d05a03fa90508060008103611c5057fe5b5080611c91576040517f08c379a0000000000000000000000000000000000000000000000000000000008152600401611c88906132cf565b60405180910390fd5b505092915050565b611ca161234f565b60007f30644e72e131a029b85045b68181585d97816a916871ca8d3c208c16d87cfd47905060008360000151148015611cde575060008360200151145b15611d02576040518060400160405280600081526020016000815250915050611d39565b604051806040016040528084600001518152602001828560200151611d27919061331e565b83611d32919061334f565b8152509150505b919050565b600080600467ffffffffffffffff811115611d5c57611d5b612508565b5b604051908082528060200260200182016040528015611d9557816020015b611d8261234f565b815260200190600190039081611d7a5790505b5090506000600467ffffffffffffffff811115611db557611db4612508565b5b604051908082528060200260200182016040528015611dee57816020015b611ddb6123ad565b815260200190600190039081611dd35790505b5090508a82600081518110611e0657611e05612bd4565b5b60200260200101819052508882600181518110611e2657611e25612bd4565b5b60200260200101819052508682600281518110611e4657611e45612bd4565b5b60200260200101819052508482600381518110611e6657611e65612bd4565b5b60200260200101819052508981600081518110611e8657611e85612bd4565b5b60200260200101819052508781600181518110611ea657611ea5612bd4565b5b60200260200101819052508581600281518110611ec657611ec5612bd4565b5b60200260200101819052508381600381518110611ee657611ee5612bd4565b5b6020026020010181905250611efb8282611f13565b9250505098975050505050505050565b600033905090565b60008151835114611f59576040517f08c379a0000000000000000000000000000000000000000000000000000000008152600401611f50906133cf565b60405180910390fd5b6000835190506000600682611f6e9190612c8d565b905060008167ffffffffffffffff811115611f8c57611f8b612508565b5b604051908082528060200260200182016040528015611fba5781602001602082028036833780820191505090505b50905060005b8381101561223f57868181518110611fdb57611fda612bd4565b5b602002602001015160000151826000600684611ff79190612c8d565b612001919061309f565b8151811061201257612011612bd4565b5b60200260200101818152505086818151811061203157612030612bd4565b5b60200260200101516020015182600160068461204d9190612c8d565b612057919061309f565b8151811061206857612067612bd4565b5b60200260200101818152505085818151811061208757612086612bd4565b5b6020026020010151600001516000600281106120a6576120a5612bd4565b5b60200201518260026006846120bb9190612c8d565b6120c5919061309f565b815181106120d6576120d5612bd4565b5b6020026020010181815250508581815181106120f5576120f4612bd4565b5b60200260200101516000015160016002811061211457612113612bd4565b5b60200201518260036006846121299190612c8d565b612133919061309f565b8151811061214457612143612bd4565b5b60200260200101818152505085818151811061216357612162612bd4565b5b60200260200101516020015160006002811061218257612181612bd4565b5b60200201518260046006846121979190612c8d565b6121a1919061309f565b815181106121b2576121b1612bd4565b5b6020026020010181815250508581815181106121d1576121d0612bd4565b5b6020026020010151602001516001600281106121f0576121ef612bd4565b5b60200201518260056006846122059190612c8d565b61220f919061309f565b815181106122205761221f612bd4565b5b602002602001018181525050808061223790612fc5565b915050611fc0565b506122486123d3565b6000602082602086026020860160086107d05a03fa9050806000810361226a57fe5b50806122ab576040517f08c379a00000000000000000000000000000000000000000000000000000000081526004016122a29061343b565b60405180910390fd5b6000826000600181106122c1576122c0612bd4565b5b602002015114159550505050505092915050565b60405180606001604052806122e861234f565b81526020016122f56123ad565b815260200161230261234f565b81525090565b6040518060a0016040528061231b61234f565b81526020016123286123ad565b81526020016123356123ad565b81526020016123426123ad565b8152602001606081525090565b604051806040016040528060008152602001600081525090565b6040518060600160405280600390602082028036833780820191505090505090565b6040518060800160405280600490602082028036833780820191505090505090565b60405180604001604052806123c06123f5565b81526020016123cd6123f5565b81525090565b6040518060200160405280600190602082028036833780820191505090505090565b6040518060400160405280600290602082028036833780820191505090505090565b6000819050919050565b61242a81612417565b82525050565b60006020820190506124456000830184612421565b92915050565b6000604051905090565b600080fd5b600080fd5b61246881612417565b811461247357600080fd5b50565b6000813590506124858161245f565b92915050565b6000602082840312156124a1576124a0612455565b5b60006124af84828501612476565b91505092915050565b600063ffffffff82169050919050565b6124d1816124b8565b82525050565b60006020820190506124ec60008301846124c8565b92915050565b600080fd5b6000601f19601f8301169050919050565b7f4e487b7100000000000000000000000000000000000000000000000000000000600052604160045260246000fd5b612540826124f7565b810181811067ffffffffffffffff8211171561255f5761255e612508565b5b80604052505050565b600061257261244b565b905061257e8282612537565b919050565b600067ffffffffffffffff82111561259e5761259d612508565b5b602082029050919050565b600080fd5b60006125c16125bc84612583565b612568565b905080602084028301858111156125db576125da6125a9565b5b835b8181101561260457806125f08882612476565b8452602084019350506020810190506125dd565b5050509392505050565b600082601f830112612623576126226124f2565b5b60026126308482856125ae565b91505092915050565b600067ffffffffffffffff82111561265457612653612508565b5b602082029050919050565b600061267261266d84612639565b612568565b9050806040840283018581111561268c5761268b6125a9565b5b835b818110156126b557806126a1888261260e565b84526020840193505060408101905061268e565b5050509392505050565b600082601f8301126126d4576126d36124f2565b5b60026126e184828561265f565b91505092915050565b600067ffffffffffffffff82111561270557612704612508565b5b602082029050919050565b600061272361271e846126ea565b612568565b9050806020840283018581111561273d5761273c6125a9565b5b835b8181101561276657806127528882612476565b84526020840193505060208101905061273f565b5050509392505050565b600082601f830112612785576127846124f2565b5b6005612792848285612710565b91505092915050565b6000806000806101a085870312156127b6576127b5612455565b5b60006127c48782880161260e565b94505060406127d5878288016126bf565b93505060c06127e68782880161260e565b9250506101006127f887828801612770565b91505092959194509250565b600080fd5b600067ffffffffffffffff82111561282457612823612508565b5b61282d826124f7565b9050602081019050919050565b82818337600083830152505050565b600061285c61285784612809565b612568565b90508281526020810184848401111561287857612877612804565b5b61288384828561283a565b509392505050565b600082601f8301126128a05761289f6124f2565b5b81356128b0848260208601612849565b91505092915050565b6128c2816124b8565b81146128cd57600080fd5b50565b6000813590506128df816128b9565b92915050565b600080600080608085870312156128ff576128fe612455565b5b600061290d87828801612476565b945050602085013567ffffffffffffffff81111561292e5761292d61245a565b5b61293a8782880161288b565b935050604061294b878288016128d0565b925050606061295c87828801612476565b91505092959194509250565b60008115159050919050565b61297d81612968565b82525050565b60006020820190506129986000830184612974565b92915050565b600073ffffffffffffffffffffffffffffffffffffffff82169050919050565b60006129c98261299e565b9050919050565b6129d9816129be565b81146129e457600080fd5b50565b6000813590506129f6816129d0565b92915050565b600060208284031215612a1257612a11612455565b5b6000612a20848285016129e7565b91505092915050565b600081519050919050565b600082825260208201905092915050565b6000819050602082019050919050565b612a5e81612417565b82525050565b6000612a708383612a55565b60208301905092915050565b6000602082019050919050565b6000612a9482612a29565b612a9e8185612a34565b9350612aa983612a45565b8060005b83811015612ada578151612ac18882612a64565b9750612acc83612a7c565b925050600181019050612aad565b5085935050505092915050565b60006020820190508181036000830152612b018184612a89565b905092915050565b600081519050919050565b600082825260208201905092915050565b60005b83811015612b43578082015181840152602081019050612b28565b60008484015250505050565b6000612b5a82612b09565b612b648185612b14565b9350612b74818560208601612b25565b612b7d816124f7565b840191505092915050565b60006020820190508181036000830152612ba28184612b4f565b905092915050565b612bb3816129be565b82525050565b6000602082019050612bce6000830184612baa565b92915050565b7f4e487b7100000000000000000000000000000000000000000000000000000000600052603260045260246000fd5b7f4e487b7100000000000000000000000000000000000000000000000000000000600052601160045260246000fd5b6000612c3d826124b8565b915063ffffffff8203612c5357612c52612c03565b5b600182019050919050565b7f4e487b7100000000000000000000000000000000000000000000000000000000600052600160045260246000fd5b6000612c9882612417565b9150612ca383612417565b9250817fffffffffffffffffffffffffffffffffffffffffffffffffffffffffffffffff0483118215151615612cdc57612cdb612c03565b5b828202905092915050565b7f4e487b7100000000000000000000000000000000000000000000000000000000600052602260045260246000fd5b60006002820490506001821680612d2e57607f821691505b602082108103612d4157612d40612ce7565b5b50919050565b60008190508160005260206000209050919050565b60006020601f8301049050919050565b600082821b905092915050565b600060088302612da97fffffffffffffffffffffffffffffffffffffffffffffffffffffffffffffffff82612d6c565b612db38683612d6c565b95508019841693508086168417925050509392505050565b6000819050919050565b6000612df0612deb612de684612417565b612dcb565b612417565b9050919050565b6000819050919050565b612e0a83612dd5565b612e1e612e1682612df7565b848454612d79565b825550505050565b600090565b612e33612e26565b612e3e818484612e01565b505050565b5b81811015612e6257612e57600082612e2b565b600181019050612e44565b5050565b601f821115612ea757612e7881612d47565b612e8184612d5c565b81016020851015612e90578190505b612ea4612e9c85612d5c565b830182612e43565b50505b505050565b600082821c905092915050565b6000612eca60001984600802612eac565b1980831691505092915050565b6000612ee38383612eb9565b9150826002028217905092915050565b612efc82612b09565b67ffffffffffffffff811115612f1557612f14612508565b5b612f1f8254612d16565b612f2a828285612e66565b600060209050601f831160018114612f5d5760008415612f4b578287015190505b612f558582612ed7565b865550612fbd565b601f198416612f6b86612d47565b60005b82811015612f9357848901518255600182019150602085019450602081019050612f6e565b86831015612fb05784890151612fac601f891682612eb9565b8355505b6001600288020188555050505b505050505050565b6000612fd082612417565b91507fffffffffffffffffffffffffffffffffffffffffffffffffffffffffffffffff820361300257613001612c03565b5b600182019050919050565b7f4f776e61626c653a206e6577206f776e657220697320746865207a65726f206160008201527f6464726573730000000000000000000000000000000000000000000000000000602082015250565b6000613069602683612b14565b91506130748261300d565b604082019050919050565b600060208201905081810360008301526130988161305c565b9050919050565b60006130aa82612417565b91506130b583612417565b92508282019050808211156130cd576130cc612c03565b5b92915050565b7f76657269666965722d6261642d696e7075740000000000000000000000000000600082015250565b6000613109601283612b14565b9150613114826130d3565b602082019050919050565b60006020820190508181036000830152613138816130fc565b9050919050565b7f76657269666965722d6774652d736e61726b2d7363616c61722d6669656c6400600082015250565b6000613175601f83612b14565b91506131808261313f565b602082019050919050565b600060208201905081810360008301526131a481613168565b9050919050565b7f4f776e61626c653a2063616c6c6572206973206e6f7420746865206f776e6572600082015250565b60006131e1602083612b14565b91506131ec826131ab565b602082019050919050565b60006020820190508181036000830152613210816131d4565b9050919050565b7f70616972696e672d6d756c2d6661696c65640000000000000000000000000000600082015250565b600061324d601283612b14565b915061325882613217565b602082019050919050565b6000602082019050818103600083015261327c81613240565b9050919050565b7f70616972696e672d6164642d6661696c65640000000000000000000000000000600082015250565b60006132b9601283612b14565b91506132c482613283565b602082019050919050565b600060208201905081810360008301526132e8816132ac565b9050919050565b7f4e487b7100000000000000000000000000000000000000000000000000000000600052601260045260246000fd5b600061332982612417565b915061333483612417565b925082613344576133436132ef565b5b828206905092915050565b600061335a82612417565b915061336583612417565b925082820390508181111561337d5761337c612c03565b5b92915050565b7f70616972696e672d6c656e677468732d6661696c656400000000000000000000600082015250565b60006133b9601683612b14565b91506133c482613383565b602082019050919050565b600060208201905081810360008301526133e8816133ac565b9050919050565b7f70616972696e672d6f70636f64652d6661696c65640000000000000000000000600082015250565b6000613425601583612b14565b9150613430826133ef565b602082019050919050565b6000602082019050818103600083015261345481613418565b905091905056fea26469706673582212208d2a56ac856c2f7d64165f8b17ffd4362a43d0f9a7ed98b718342bad41a5c33f64736f6c63430008100033",
  "linkReferences": {},
  "deployedLinkReferences": {}
}