{
  "_format": "hh-sol-artifact-1",
  "contractName": "Polls",
  "sourceName": "src/Polls.sol",
  "abi": [
    {
      "inputs": [],
      "name": "DuplicatePoll",
      "type": "error"
    },
    {
      "inputs": [],
      "name": "DuplicateVote",
      "type": "error"
    },
    {
      "inputs": [],
      "name": "InvalidPollPrice",
      "type": "error"
    },
    {
      "inputs": [],
      "name": "InvalidProof",
      "type": "error"
    },
    {
      "inputs": [],
      "name": "InvalidSnapshot",
      "type": "error"
    },
    {
      "inputs": [],
      "name": "InvalidVote",
      "type": "error"
    },
    {
      "inputs": [],
      "name": "InvalidVoteOptions",
      "type": "error"
    },
    {
      "inputs": [],
      "name": "PollFull",
      "type": "error"
    },
    {
      "inputs": [],
      "name": "UnknownPoll",
      "type": "error"
    },
    {
      "anonymous": false,
      "inputs": [
        {
          "indexed": true,
          "internalType": "address",
          "name": "previousOwner",
          "type": "address"
        },
        {
          "indexed": true,
          "internalType": "address",
          "name": "newOwner",
          "type": "address"
        }
      ],
      "name": "OwnershipTransferred",
      "type": "event"
    },
    {
      "inputs": [
        {
          "internalType": "uint128",
          "name": "pollId",
          "type": "uint128"
        },
        {
          "internalType": "string",
          "name": "cid",
          "type": "string"
        },
        {
          "internalType": "uint32",
          "name": "pollCount",
          "type": "uint32"
        },
        {
          "internalType": "uint256",
          "name": "snapshotRoot",
          "type": "uint256"
        },
        {
          "internalType": "uint8",
          "name": "voteOptions",
          "type": "uint8"
        }
      ],
      "name": "createPoll",
      "outputs": [],
      "stateMutability": "payable",
      "type": "function"
    },
    {
      "inputs": [
        {
          "internalType": "uint128",
          "name": "pollId",
          "type": "uint128"
        }
      ],
      "name": "getPollCid",
      "outputs": [
        {
          "internalType": "string",
          "name": "",
          "type": "string"
        }
      ],
      "stateMutability": "view",
      "type": "function"
    },
    {
      "inputs": [
        {
          "internalType": "uint128",
          "name": "pollId",
          "type": "uint128"
        }
      ],
      "name": "getPollCreated",
      "outputs": [
        {
          "internalType": "bool",
          "name": "",
          "type": "bool"
        }
      ],
      "stateMutability": "view",
      "type": "function"
    },
    {
      "inputs": [
        {
          "internalType": "uint128",
          "name": "pollId",
          "type": "uint128"
        },
        {
          "internalType": "uint8",
          "name": "voteOption",
          "type": "uint8"
        }
      ],
      "name": "getPollResult",
      "outputs": [
        {
          "internalType": "uint32",
          "name": "",
          "type": "uint32"
        }
      ],
      "stateMutability": "view",
      "type": "function"
    },
    {
      "inputs": [
        {
          "internalType": "uint128",
          "name": "pollId",
          "type": "uint128"
        }
      ],
      "name": "getPollVoteCount",
      "outputs": [
        {
          "internalType": "uint32",
          "name": "",
          "type": "uint32"
        }
      ],
      "stateMutability": "view",
      "type": "function"
    },
    {
      "inputs": [
        {
          "internalType": "uint128",
          "name": "pollId",
          "type": "uint128"
        }
      ],
      "name": "getPollVoteOptions",
      "outputs": [
        {
          "internalType": "uint8",
          "name": "",
          "type": "uint8"
        }
      ],
      "stateMutability": "view",
      "type": "function"
    },
    {
      "inputs": [],
      "name": "getUnitPrice",
      "outputs": [
        {
          "internalType": "uint256",
          "name": "",
          "type": "uint256"
        }
      ],
      "stateMutability": "view",
      "type": "function"
    },
    {
      "inputs": [
        {
          "internalType": "address",
          "name": "user",
          "type": "address"
        }
      ],
      "name": "getUserPollIds",
      "outputs": [
        {
          "internalType": "uint128[]",
          "name": "",
          "type": "uint128[]"
        }
      ],
      "stateMutability": "view",
      "type": "function"
    },
    {
      "inputs": [],
      "name": "owner",
      "outputs": [
        {
          "internalType": "address",
          "name": "",
          "type": "address"
        }
      ],
      "stateMutability": "view",
      "type": "function"
    },
    {
      "inputs": [],
      "name": "renounceOwnership",
      "outputs": [],
      "stateMutability": "nonpayable",
      "type": "function"
    },
    {
      "inputs": [
        {
          "internalType": "uint256",
          "name": "_unitPrice",
          "type": "uint256"
        }
      ],
      "name": "setUnitPrice",
      "outputs": [],
      "stateMutability": "nonpayable",
      "type": "function"
    },
    {
      "inputs": [
        {
          "internalType": "address",
          "name": "newOwner",
          "type": "address"
        }
      ],
      "name": "transferOwnership",
      "outputs": [],
      "stateMutability": "nonpayable",
      "type": "function"
    },
    {
      "inputs": [
        {
          "internalType": "uint256[2]",
          "name": "a",
          "type": "uint256[2]"
        },
        {
          "internalType": "uint256[2][2]",
          "name": "b",
          "type": "uint256[2][2]"
        },
        {
          "internalType": "uint256[2]",
          "name": "c",
          "type": "uint256[2]"
        },
        {
          "internalType": "uint256[5]",
          "name": "input",
          "type": "uint256[5]"
        }
      ],
      "name": "validateVote",
      "outputs": [
        {
          "internalType": "bool",
          "name": "",
          "type": "bool"
        }
      ],
      "stateMutability": "view",
      "type": "function"
    },
    {
      "inputs": [
        {
          "internalType": "uint256[2]",
          "name": "a",
          "type": "uint256[2]"
        },
        {
          "internalType": "uint256[2][2]",
          "name": "b",
          "type": "uint256[2][2]"
        },
        {
          "internalType": "uint256[2]",
          "name": "c",
          "type": "uint256[2]"
        },
        {
          "internalType": "uint256[5]",
          "name": "input",
          "type": "uint256[5]"
        }
      ],
      "name": "verifyProof",
      "outputs": [
        {
          "internalType": "bool",
          "name": "r",
          "type": "bool"
        }
      ],
      "stateMutability": "view",
      "type": "function"
    },
    {
      "inputs": [
        {
          "internalType": "uint256[2]",
          "name": "a",
          "type": "uint256[2]"
        },
        {
          "internalType": "uint256[2][2]",
          "name": "b",
          "type": "uint256[2][2]"
        },
        {
          "internalType": "uint256[2]",
          "name": "c",
          "type": "uint256[2]"
        },
        {
          "internalType": "uint256[5]",
          "name": "input",
          "type": "uint256[5]"
        }
      ],
      "name": "vote",
      "outputs": [],
      "stateMutability": "nonpayable",
      "type": "function"
    }
  ],
  "bytecode": "0x608060405265640b5eece0006001553480156200001b57600080fd5b506200003c620000306200004260201b60201c565b6200004a60201b60201c565b6200010e565b600033905090565b60008060009054906101000a900473ffffffffffffffffffffffffffffffffffffffff169050816000806101000a81548173ffffffffffffffffffffffffffffffffffffffff021916908373ffffffffffffffffffffffffffffffffffffffff1602179055508173ffffffffffffffffffffffffffffffffffffffff168173ffffffffffffffffffffffffffffffffffffffff167f8be0079c531659141344cd1fd0a4f28419497f9722a3daafe3b4186f6b6457e060405160405180910390a35050565b613544806200011e6000396000f3fe6080604052600436106100e85760003560e01c8063596ba73e1161008a578063b086b98211610059578063b086b98214610321578063cd1641d61461034a578063dc1b732814610387578063f2fde38b146103b0576100e8565b8063596ba73e14610265578063715018a6146102a25780638da5cb5b146102b95780639aba9ac5146102e4576100e8565b806334baeab9116100c657806334baeab9146101715780633cabac94146101ae5780635529d328146101eb578063568ab37514610228576100e8565b8063012a33aa146100ed5780630e612754146101185780631d6d4e5914610134575b600080fd5b3480156100f957600080fd5b506101026103d9565b60405161010f919061237f565b60405180910390f35b610132600480360381019061012d91906125dd565b6103e3565b005b34801561014057600080fd5b5061015b60048036038101906101569190612674565b610673565b60405161016891906126b0565b60405180910390f35b34801561017d57600080fd5b50610198600480360381019061019391906128e3565b6106c4565b6040516101a59190612967565b60405180910390f35b3480156101ba57600080fd5b506101d560048036038101906101d091906128e3565b61093d565b6040516101e29190612967565b60405180910390f35b3480156101f757600080fd5b50610212600480360381019061020d9190612982565b610be5565b60405161021f91906129d1565b60405180910390f35b34801561023457600080fd5b5061024f600480360381019061024a9190612674565b610c51565b60405161025c9190612a6b565b60405180910390f35b34801561027157600080fd5b5061028c60048036038101906102879190612aeb565b610d1d565b6040516102999190612bd6565b60405180910390f35b3480156102ae57600080fd5b506102b7610df8565b005b3480156102c557600080fd5b506102ce610e0c565b6040516102db9190612c07565b60405180910390f35b3480156102f057600080fd5b5061030b60048036038101906103069190612674565b610e35565b6040516103189190612967565b60405180910390f35b34801561032d57600080fd5b50610348600480360381019061034391906128e3565b610e86565b005b34801561035657600080fd5b50610371600480360381019061036c9190612674565b611011565b60405161037e91906129d1565b60405180910390f35b34801561039357600080fd5b506103ae60048036038101906103a99190612c22565b611065565b005b3480156103bc57600080fd5b506103d760048036038101906103d29190612aeb565b611077565b005b6000600154905090565b6000856fffffffffffffffffffffffffffffffff161161040657610405612c4f565b5b60008363ffffffff161161041d5761041c612c4f565b5b6000821161042e5761042d612c4f565b5b60008160ff161161044257610441612c4f565b5b600060036000876fffffffffffffffffffffffffffffffff166fffffffffffffffffffffffffffffffff16815260200190815260200160002090508060000160009054906101000a900460ff16156104c6576040517f4620d1c000000000000000000000000000000000000000000000000000000000815260040160405180910390fd5b8363ffffffff166001546104da9190612cad565b3414610512576040517fccdb444900000000000000000000000000000000000000000000000000000000815260040160405180910390fd5b60028260ff161015610550576040517f937392df00000000000000000000000000000000000000000000000000000000815260040160405180910390fd5b60018160000160006101000a81548160ff0219169083151502179055508481600101908161057e9190612f13565b50838160020160006101000a81548163ffffffff021916908363ffffffff160217905550828160030181905550818160040160006101000a81548160ff021916908360ff160217905550600260003373ffffffffffffffffffffffffffffffffffffffff1673ffffffffffffffffffffffffffffffffffffffff1681526020019081526020016000208690806001815401808255809150506001900390600052602060002090600291828204019190066010029091909190916101000a8154816fffffffffffffffffffffffffffffffff02191690836fffffffffffffffffffffffffffffffff160217905550505050505050565b600060036000836fffffffffffffffffffffffffffffffff166fffffffffffffffffffffffffffffffff16815260200190815260200160002060040160009054906101000a900460ff169050919050565b60006106ce612224565b6040518060400160405280876000600281106106ed576106ec612fe5565b5b602002015181526020018760016002811061070b5761070a612fe5565b5b60200201518152508160000181905250604051806040016040528060405180604001604052808860006002811061074557610744612fe5565b5b602002015160006002811061075d5761075c612fe5565b5b602002015181526020018860006002811061077b5761077a612fe5565b5b602002015160016002811061079357610792612fe5565b5b602002015181525081526020016040518060400160405280886001600281106107bf576107be612fe5565b5b60200201516000600281106107d7576107d6612fe5565b5b60200201518152602001886001600281106107f5576107f4612fe5565b5b602002015160016002811061080d5761080c612fe5565b5b6020020151815250815250816020018190525060405180604001604052808560006002811061083f5761083e612fe5565b5b602002015181526020018560016002811061085d5761085c612fe5565b5b602002015181525081604001819052506000600567ffffffffffffffff81111561088a57610889612411565b5b6040519080825280602002602001820160405280156108b85781602001602082028036833780820191505090505b50905060005b6005811015610911578481600581106108da576108d9612fe5565b5b60200201518282815181106108f2576108f1612fe5565b5b602002602001018181525050808061090990613014565b9150506108be565b50600061091e82846110fa565b0361092e57600192505050610935565b6000925050505b949350505050565b6000808260006005811061095457610953612fe5565b5b6020020151905060008360016005811061097157610970612fe5565b5b6020020151905060008460036005811061098e5761098d612fe5565b5b602002015190506000856004600581106109ab576109aa612fe5565b5b60200201519050600060036000846fffffffffffffffffffffffffffffffff166fffffffffffffffffffffffffffffffff16815260200190815260200160002090508060000160009054906101000a900460ff16610a35576040517f86f2188800000000000000000000000000000000000000000000000000000000815260040160405180910390fd5b84816003015414610a72576040517f40f08cfe00000000000000000000000000000000000000000000000000000000815260040160405180910390fd5b6001821080610a9457508060040160009054906101000a900460ff1660ff1682115b15610acb576040517fd5dd0c6600000000000000000000000000000000000000000000000000000000815260040160405180910390fd5b80600601600085815260200190815260200160002060009054906101000a900460ff1615610b25576040517f0ebd16a400000000000000000000000000000000000000000000000000000000815260040160405180910390fd5b8060020160009054906101000a900463ffffffff1663ffffffff168160040160019054906101000a900463ffffffff1663ffffffff1603610b92576040517f03fdb94700000000000000000000000000000000000000000000000000000000815260040160405180910390fd5b610b9e8a8a8a8a6106c4565b610bd4576040517f09bde33900000000000000000000000000000000000000000000000000000000815260040160405180910390fd5b600195505050505050949350505050565b600060036000846fffffffffffffffffffffffffffffffff166fffffffffffffffffffffffffffffffff16815260200190815260200160002060050160008360ff1660ff16815260200190815260200160002060009054906101000a900463ffffffff16905092915050565b606060036000836fffffffffffffffffffffffffffffffff166fffffffffffffffffffffffffffffffff1681526020019081526020016000206001018054610c9890612d36565b80601f0160208091040260200160405190810160405280929190818152602001828054610cc490612d36565b8015610d115780601f10610ce657610100808354040283529160200191610d11565b820191906000526020600020905b815481529060010190602001808311610cf457829003601f168201915b50505050509050919050565b6060600260008373ffffffffffffffffffffffffffffffffffffffff1673ffffffffffffffffffffffffffffffffffffffff168152602001908152602001600020805480602002602001604051908101604052809291908181526020018280548015610dec57602002820191906000526020600020906000905b82829054906101000a90046fffffffffffffffffffffffffffffffff166fffffffffffffffffffffffffffffffff1681526020019060100190602082600f01049283019260010382029150808411610d975790505b50505050509050919050565b610e006112ed565b610e0a600061136b565b565b60008060009054906101000a900473ffffffffffffffffffffffffffffffffffffffff16905090565b600060036000836fffffffffffffffffffffffffffffffff166fffffffffffffffffffffffffffffffff16815260200190815260200160002060000160009054906101000a900460ff169050919050565b610e928484848461093d565b50600081600160058110610ea957610ea8612fe5565b5b60200201519050600082600360058110610ec657610ec5612fe5565b5b60200201519050600083600460058110610ee357610ee2612fe5565b5b60200201519050600060036000846fffffffffffffffffffffffffffffffff166fffffffffffffffffffffffffffffffff1681526020019081526020016000209050600181600601600086815260200190815260200160002060006101000a81548160ff02191690831515021790555060018160050160008460ff1660ff16815260200190815260200160002060009054906101000a900463ffffffff16610f8b919061305c565b8160050160008460ff1660ff16815260200190815260200160002060006101000a81548163ffffffff021916908363ffffffff16021790555080600401600181819054906101000a900463ffffffff1680929190610fe890613094565b91906101000a81548163ffffffff021916908363ffffffff160217905550505050505050505050565b600060036000836fffffffffffffffffffffffffffffffff166fffffffffffffffffffffffffffffffff16815260200190815260200160002060040160019054906101000a900463ffffffff169050919050565b61106d6112ed565b8060018190555050565b61107f6112ed565b600073ffffffffffffffffffffffffffffffffffffffff168173ffffffffffffffffffffffffffffffffffffffff16036110ee576040517f08c379a00000000000000000000000000000000000000000000000000000000081526004016110e590613132565b60405180910390fd5b6110f78161136b565b50565b6000807f30644e72e131a029b85045b68181585d2833e84879b9709143e1f593f00000019050600061112a61142f565b9050806080015151600186516111409190613152565b14611180576040517f08c379a0000000000000000000000000000000000000000000000000000000008152600401611177906131d2565b60405180910390fd5b60006040518060400160405280600081526020016000815250905060005b865181101561126f57838782815181106111bb576111ba612fe5565b5b602002602001015110611203576040517f08c379a00000000000000000000000000000000000000000000000000000000081526004016111fa9061323e565b60405180910390fd5b61125a82611255856080015160018561121c9190613152565b8151811061122d5761122c612fe5565b5b60200260200101518a858151811061124857611247612fe5565b5b6020026020010151611a12565b611aea565b9150808061126790613014565b91505061119e565b5061129981836080015160008151811061128c5761128b612fe5565b5b6020026020010151611aea565b90506112cf6112ab8660000151611be8565b8660200151846000015185602001518587604001518b604001518960600151611c8d565b6112df57600193505050506112e7565b600093505050505b92915050565b6112f5611e5a565b73ffffffffffffffffffffffffffffffffffffffff16611313610e0c565b73ffffffffffffffffffffffffffffffffffffffff1614611369576040517f08c379a0000000000000000000000000000000000000000000000000000000008152600401611360906132aa565b60405180910390fd5b565b60008060009054906101000a900473ffffffffffffffffffffffffffffffffffffffff169050816000806101000a81548173ffffffffffffffffffffffffffffffffffffffff021916908373ffffffffffffffffffffffffffffffffffffffff1602179055508173ffffffffffffffffffffffffffffffffffffffff168173ffffffffffffffffffffffffffffffffffffffff167f8be0079c531659141344cd1fd0a4f28419497f9722a3daafe3b4186f6b6457e060405160405180910390a35050565b611437612257565b60405180604001604052807f2d4d9aa7e302d9df41749d5507949d05dbea33fbb16c643b22f599a2be6df2e281526020017f14bedd503c37ceb061d8ec60209fe345ce89830a19230301f076caff004d19268152508160000181905250604051806040016040528060405180604001604052807f0967032fcbf776d1afc985f88877f182d38480a653f2decaa9794cbc3bf3060c81526020017f0e187847ad4c798374d0d6732bf501847dd68bc0e071241e0213bc7fc13db7ab815250815260200160405180604001604052807f304cfbd1e08a704a99f5e847d93f8c3caafddec46b7a0d379da69a4d112346a781526020017f1739c1b1a457a8c7313123d24d2f9192f896b7c63eea05a9d57f06547ad0cec88152508152508160200181905250604051806040016040528060405180604001604052807f198e9393920d483a7260bfb731fb5d25f1aa493335a9e71297e485b7aef312c281526020017f1800deef121f1e76426a00665e5c4479674322d4f75edadd46debd5cd992f6ed815250815260200160405180604001604052807f090689d0585ff075ec9e99ad690c3395bc4b313370b38ef355acdadcd122975b81526020017f12c85ea5db8c6deb4aab71808dcb408fe3d1e7690c43d37b4ce6cc0166fa7daa8152508152508160400181905250604051806040016040528060405180604001604052807f23d045bfc484ddd832fe8dbcc2cfdfc7ebf305301950f7f294173fa56c35ceff81526020017f20309902334fdfc896a7c6a0435c3edfd0a506c28ab3504232f54f80bc317073815250815260200160405180604001604052807f08ad7eaf472ef70f2a9981bbabeb8fa2aafcb75dd9bb2a7517236a422a2030e381526020017f23c152fcd4d1b7baabfa15ef06b76b7611e59428a9f3356d36720ee9bb220f878152508152508160600181905250600667ffffffffffffffff8111156116fe576116fd612411565b5b60405190808252806020026020018201604052801561173757816020015b61172461229e565b81526020019060019003908161171c5790505b50816080018190525060405180604001604052807f26f0b02b49f17ea173edafcb255506a972a0956ce633af61e17e9d25c668b4da81526020017f141119acd5383574a3d1542ad00b38f2045dbcd915112a91f6c83f517f33df3c81525081608001516000815181106117ad576117ac612fe5565b5b602002602001018190525060405180604001604052807f23414cf72fe8c9e210060380ba8ecd8f35fb120903afa389a025f139672a48c281526020017f2cabeefa6039c0e6509d8f3ca90776000c2aeae95d8a03d92de0c05970ab2067815250816080015160018151811061182557611824612fe5565b5b602002602001018190525060405180604001604052807f16ee506fbd2eace9f4730cba71ea563efe1f8513002d2401693fcc3a9e2eb87281526020017f0827e18fdcd9935783a600d15e058676ca2f8c6ed31871b2dc7a3c587fdd9ee2815250816080015160028151811061189d5761189c612fe5565b5b602002602001018190525060405180604001604052807eac84f5577a5b278966bf94eb123c294885dc5435f5839fc69a2a64f375565681526020017f28506c7b698873c9b595081f9505b309313fa8c268335c38203ed83d387ce276815250816080015160038151811061191457611913612fe5565b5b602002602001018190525060405180604001604052807f2dcefaccd749829736df6548459e88092872238559b64ac76db8896d9c4fd08081526020017f0f9e931d2664f58d4291f77db1f967ade568fe3947d320b5738b044b0b2989b5815250816080015160048151811061198c5761198b612fe5565b5b602002602001018190525060405180604001604052807f18c6fb674579d3daac0e427291346e72e138e3b06b2caebc7346e6e05ae21c4881526020017f21251363f14a35a2561923899473722700d74ae203c3ee6821e1478eb7cb5f3c8152508160800151600581518110611a0457611a03612fe5565b5b602002602001018190525090565b611a1a61229e565b611a226122b8565b836000015181600060038110611a3b57611a3a612fe5565b5b602002018181525050836020015181600160038110611a5d57611a5c612fe5565b5b6020020181815250508281600260038110611a7b57611a7a612fe5565b5b602002018181525050600060608360808460076107d05a03fa90508060008103611aa157fe5b5080611ae2576040517f08c379a0000000000000000000000000000000000000000000000000000000008152600401611ad990613316565b60405180910390fd5b505092915050565b611af261229e565b611afa6122da565b836000015181600060048110611b1357611b12612fe5565b5b602002018181525050836020015181600160048110611b3557611b34612fe5565b5b602002018181525050826000015181600260048110611b5757611b56612fe5565b5b602002018181525050826020015181600360048110611b7957611b78612fe5565b5b602002018181525050600060608360c08460066107d05a03fa90508060008103611b9f57fe5b5080611be0576040517f08c379a0000000000000000000000000000000000000000000000000000000008152600401611bd790613382565b60405180910390fd5b505092915050565b611bf061229e565b60007f30644e72e131a029b85045b68181585d97816a916871ca8d3c208c16d87cfd47905060008360000151148015611c2d575060008360200151145b15611c51576040518060400160405280600081526020016000815250915050611c88565b604051806040016040528084600001518152602001828560200151611c7691906133d1565b83611c819190613402565b8152509150505b919050565b600080600467ffffffffffffffff811115611cab57611caa612411565b5b604051908082528060200260200182016040528015611ce457816020015b611cd161229e565b815260200190600190039081611cc95790505b5090506000600467ffffffffffffffff811115611d0457611d03612411565b5b604051908082528060200260200182016040528015611d3d57816020015b611d2a6122fc565b815260200190600190039081611d225790505b5090508a82600081518110611d5557611d54612fe5565b5b60200260200101819052508882600181518110611d7557611d74612fe5565b5b60200260200101819052508682600281518110611d9557611d94612fe5565b5b60200260200101819052508482600381518110611db557611db4612fe5565b5b60200260200101819052508981600081518110611dd557611dd4612fe5565b5b60200260200101819052508781600181518110611df557611df4612fe5565b5b60200260200101819052508581600281518110611e1557611e14612fe5565b5b60200260200101819052508381600381518110611e3557611e34612fe5565b5b6020026020010181905250611e4a8282611e62565b9250505098975050505050505050565b600033905090565b60008151835114611ea8576040517f08c379a0000000000000000000000000000000000000000000000000000000008152600401611e9f90613482565b60405180910390fd5b6000835190506000600682611ebd9190612cad565b905060008167ffffffffffffffff811115611edb57611eda612411565b5b604051908082528060200260200182016040528015611f095781602001602082028036833780820191505090505b50905060005b8381101561218e57868181518110611f2a57611f29612fe5565b5b602002602001015160000151826000600684611f469190612cad565b611f509190613152565b81518110611f6157611f60612fe5565b5b602002602001018181525050868181518110611f8057611f7f612fe5565b5b602002602001015160200151826001600684611f9c9190612cad565b611fa69190613152565b81518110611fb757611fb6612fe5565b5b602002602001018181525050858181518110611fd657611fd5612fe5565b5b602002602001015160000151600060028110611ff557611ff4612fe5565b5b602002015182600260068461200a9190612cad565b6120149190613152565b8151811061202557612024612fe5565b5b60200260200101818152505085818151811061204457612043612fe5565b5b60200260200101516000015160016002811061206357612062612fe5565b5b60200201518260036006846120789190612cad565b6120829190613152565b8151811061209357612092612fe5565b5b6020026020010181815250508581815181106120b2576120b1612fe5565b5b6020026020010151602001516000600281106120d1576120d0612fe5565b5b60200201518260046006846120e69190612cad565b6120f09190613152565b8151811061210157612100612fe5565b5b6020026020010181815250508581815181106121205761211f612fe5565b5b60200260200101516020015160016002811061213f5761213e612fe5565b5b60200201518260056006846121549190612cad565b61215e9190613152565b8151811061216f5761216e612fe5565b5b602002602001018181525050808061218690613014565b915050611f0f565b50612197612322565b6000602082602086026020860160086107d05a03fa905080600081036121b957fe5b50806121fa576040517f08c379a00000000000000000000000000000000000000000000000000000000081526004016121f1906134ee565b60405180910390fd5b6000826000600181106122105761220f612fe5565b5b602002015114159550505050505092915050565b604051806060016040528061223761229e565b81526020016122446122fc565b815260200161225161229e565b81525090565b6040518060a0016040528061226a61229e565b81526020016122776122fc565b81526020016122846122fc565b81526020016122916122fc565b8152602001606081525090565b604051806040016040528060008152602001600081525090565b6040518060600160405280600390602082028036833780820191505090505090565b6040518060800160405280600490602082028036833780820191505090505090565b604051806040016040528061230f612344565b815260200161231c612344565b81525090565b6040518060200160405280600190602082028036833780820191505090505090565b6040518060400160405280600290602082028036833780820191505090505090565b6000819050919050565b61237981612366565b82525050565b60006020820190506123946000830184612370565b92915050565b6000604051905090565b600080fd5b600080fd5b60006fffffffffffffffffffffffffffffffff82169050919050565b6123d3816123ae565b81146123de57600080fd5b50565b6000813590506123f0816123ca565b92915050565b600080fd5b600080fd5b6000601f19601f8301169050919050565b7f4e487b7100000000000000000000000000000000000000000000000000000000600052604160045260246000fd5b61244982612400565b810181811067ffffffffffffffff8211171561246857612467612411565b5b80604052505050565b600061247b61239a565b90506124878282612440565b919050565b600067ffffffffffffffff8211156124a7576124a6612411565b5b6124b082612400565b9050602081019050919050565b82818337600083830152505050565b60006124df6124da8461248c565b612471565b9050828152602081018484840111156124fb576124fa6123fb565b5b6125068482856124bd565b509392505050565b600082601f830112612523576125226123f6565b5b81356125338482602086016124cc565b91505092915050565b600063ffffffff82169050919050565b6125558161253c565b811461256057600080fd5b50565b6000813590506125728161254c565b92915050565b61258181612366565b811461258c57600080fd5b50565b60008135905061259e81612578565b92915050565b600060ff82169050919050565b6125ba816125a4565b81146125c557600080fd5b50565b6000813590506125d7816125b1565b92915050565b600080600080600060a086880312156125f9576125f86123a4565b5b6000612607888289016123e1565b955050602086013567ffffffffffffffff811115612628576126276123a9565b5b6126348882890161250e565b945050604061264588828901612563565b93505060606126568882890161258f565b9250506080612667888289016125c8565b9150509295509295909350565b60006020828403121561268a576126896123a4565b5b6000612698848285016123e1565b91505092915050565b6126aa816125a4565b82525050565b60006020820190506126c560008301846126a1565b92915050565b600067ffffffffffffffff8211156126e6576126e5612411565b5b602082029050919050565b600080fd5b6000612709612704846126cb565b612471565b90508060208402830185811115612723576127226126f1565b5b835b8181101561274c5780612738888261258f565b845260208401935050602081019050612725565b5050509392505050565b600082601f83011261276b5761276a6123f6565b5b60026127788482856126f6565b91505092915050565b600067ffffffffffffffff82111561279c5761279b612411565b5b602082029050919050565b60006127ba6127b584612781565b612471565b905080604084028301858111156127d4576127d36126f1565b5b835b818110156127fd57806127e98882612756565b8452602084019350506040810190506127d6565b5050509392505050565b600082601f83011261281c5761281b6123f6565b5b60026128298482856127a7565b91505092915050565b600067ffffffffffffffff82111561284d5761284c612411565b5b602082029050919050565b600061286b61286684612832565b612471565b90508060208402830185811115612885576128846126f1565b5b835b818110156128ae578061289a888261258f565b845260208401935050602081019050612887565b5050509392505050565b600082601f8301126128cd576128cc6123f6565b5b60056128da848285612858565b91505092915050565b6000806000806101a085870312156128fe576128fd6123a4565b5b600061290c87828801612756565b945050604061291d87828801612807565b93505060c061292e87828801612756565b925050610100612940878288016128b8565b91505092959194509250565b60008115159050919050565b6129618161294c565b82525050565b600060208201905061297c6000830184612958565b92915050565b60008060408385031215612999576129986123a4565b5b60006129a7858286016123e1565b92505060206129b8858286016125c8565b9150509250929050565b6129cb8161253c565b82525050565b60006020820190506129e660008301846129c2565b92915050565b600081519050919050565b600082825260208201905092915050565b60005b83811015612a26578082015181840152602081019050612a0b565b60008484015250505050565b6000612a3d826129ec565b612a4781856129f7565b9350612a57818560208601612a08565b612a6081612400565b840191505092915050565b60006020820190508181036000830152612a858184612a32565b905092915050565b600073ffffffffffffffffffffffffffffffffffffffff82169050919050565b6000612ab882612a8d565b9050919050565b612ac881612aad565b8114612ad357600080fd5b50565b600081359050612ae581612abf565b92915050565b600060208284031215612b0157612b006123a4565b5b6000612b0f84828501612ad6565b91505092915050565b600081519050919050565b600082825260208201905092915050565b6000819050602082019050919050565b612b4d816123ae565b82525050565b6000612b5f8383612b44565b60208301905092915050565b6000602082019050919050565b6000612b8382612b18565b612b8d8185612b23565b9350612b9883612b34565b8060005b83811015612bc9578151612bb08882612b53565b9750612bbb83612b6b565b925050600181019050612b9c565b5085935050505092915050565b60006020820190508181036000830152612bf08184612b78565b905092915050565b612c0181612aad565b82525050565b6000602082019050612c1c6000830184612bf8565b92915050565b600060208284031215612c3857612c376123a4565b5b6000612c468482850161258f565b91505092915050565b7f4e487b7100000000000000000000000000000000000000000000000000000000600052600160045260246000fd5b7f4e487b7100000000000000000000000000000000000000000000000000000000600052601160045260246000fd5b6000612cb882612366565b9150612cc383612366565b9250817fffffffffffffffffffffffffffffffffffffffffffffffffffffffffffffffff0483118215151615612cfc57612cfb612c7e565b5b828202905092915050565b7f4e487b7100000000000000000000000000000000000000000000000000000000600052602260045260246000fd5b60006002820490506001821680612d4e57607f821691505b602082108103612d6157612d60612d07565b5b50919050565b60008190508160005260206000209050919050565b60006020601f8301049050919050565b600082821b905092915050565b600060088302612dc97fffffffffffffffffffffffffffffffffffffffffffffffffffffffffffffffff82612d8c565b612dd38683612d8c565b95508019841693508086168417925050509392505050565b6000819050919050565b6000612e10612e0b612e0684612366565b612deb565b612366565b9050919050565b6000819050919050565b612e2a83612df5565b612e3e612e3682612e17565b848454612d99565b825550505050565b600090565b612e53612e46565b612e5e818484612e21565b505050565b5b81811015612e8257612e77600082612e4b565b600181019050612e64565b5050565b601f821115612ec757612e9881612d67565b612ea184612d7c565b81016020851015612eb0578190505b612ec4612ebc85612d7c565b830182612e63565b50505b505050565b600082821c905092915050565b6000612eea60001984600802612ecc565b1980831691505092915050565b6000612f038383612ed9565b9150826002028217905092915050565b612f1c826129ec565b67ffffffffffffffff811115612f3557612f34612411565b5b612f3f8254612d36565b612f4a828285612e86565b600060209050601f831160018114612f7d5760008415612f6b578287015190505b612f758582612ef7565b865550612fdd565b601f198416612f8b86612d67565b60005b82811015612fb357848901518255600182019150602085019450602081019050612f8e565b86831015612fd05784890151612fcc601f891682612ed9565b8355505b6001600288020188555050505b505050505050565b7f4e487b7100000000000000000000000000000000000000000000000000000000600052603260045260246000fd5b600061301f82612366565b91507fffffffffffffffffffffffffffffffffffffffffffffffffffffffffffffffff820361305157613050612c7e565b5b600182019050919050565b60006130678261253c565b91506130728361253c565b9250828201905063ffffffff81111561308e5761308d612c7e565b5b92915050565b600061309f8261253c565b915063ffffffff82036130b5576130b4612c7e565b5b600182019050919050565b7f4f776e61626c653a206e6577206f776e657220697320746865207a65726f206160008201527f6464726573730000000000000000000000000000000000000000000000000000602082015250565b600061311c6026836129f7565b9150613127826130c0565b604082019050919050565b6000602082019050818103600083015261314b8161310f565b9050919050565b600061315d82612366565b915061316883612366565b92508282019050808211156131805761317f612c7e565b5b92915050565b7f76657269666965722d6261642d696e7075740000000000000000000000000000600082015250565b60006131bc6012836129f7565b91506131c782613186565b602082019050919050565b600060208201905081810360008301526131eb816131af565b9050919050565b7f76657269666965722d6774652d736e61726b2d7363616c61722d6669656c6400600082015250565b6000613228601f836129f7565b9150613233826131f2565b602082019050919050565b600060208201905081810360008301526132578161321b565b9050919050565b7f4f776e61626c653a2063616c6c6572206973206e6f7420746865206f776e6572600082015250565b60006132946020836129f7565b915061329f8261325e565b602082019050919050565b600060208201905081810360008301526132c381613287565b9050919050565b7f70616972696e672d6d756c2d6661696c65640000000000000000000000000000600082015250565b60006133006012836129f7565b915061330b826132ca565b602082019050919050565b6000602082019050818103600083015261332f816132f3565b9050919050565b7f70616972696e672d6164642d6661696c65640000000000000000000000000000600082015250565b600061336c6012836129f7565b915061337782613336565b602082019050919050565b6000602082019050818103600083015261339b8161335f565b9050919050565b7f4e487b7100000000000000000000000000000000000000000000000000000000600052601260045260246000fd5b60006133dc82612366565b91506133e783612366565b9250826133f7576133f66133a2565b5b828206905092915050565b600061340d82612366565b915061341883612366565b92508282039050818111156134305761342f612c7e565b5b92915050565b7f70616972696e672d6c656e677468732d6661696c656400000000000000000000600082015250565b600061346c6016836129f7565b915061347782613436565b602082019050919050565b6000602082019050818103600083015261349b8161345f565b9050919050565b7f70616972696e672d6f70636f64652d6661696c65640000000000000000000000600082015250565b60006134d86015836129f7565b91506134e3826134a2565b602082019050919050565b60006020820190508181036000830152613507816134cb565b905091905056fea264697066735822122009479a4980e214e8cc00c72195a1809068ca62a30dfc20a59e29a71b1113124a64736f6c63430008100033",
  "linkReferences": {},
  "deployedLinkReferences": {}
}